:100000000C94F50B0C94120C0C94120C0C94D5322D
:100010000C94120C0C94120C0C94120C0C94120CE8
:100020000C94120C0C94120C0C9431190C946B1F40
:100030000C94D22C0C94120C0C94120C0C94120CE8
:100040000C94120C0C94120C0C94120C0C94120CB8
:100050000C94120C0C94601A0C94120C0C94120C4C
:100060000C94120C0C94120C0C94120C0C94120C98
:100070000C94120C0C94120C0C94120C0C94120C88
:100080000C94120C0C94120C0C94120C0C94120C78
:100090000C94120C0C94120C0C94120C0C94120C68
:1000A0000C94120C0C94120C0C94120C0631FF09D7
:1000B00074A1010975150026FF00952075088102BD
:1000C0000976150026FF00952075089102C00501EC
:1000D0000980A101850319012AB700150126B7007F
:1000E000950175108100C0050C0901A10185041955
:1000F000012AA002150126A002950175108100C0F9
:1001000005010902A1010901A10005091901290838
:100110001500250195087501810205010930093195
:100120001581257F95027508810609381581257F7F
:10013000950175088106050C0A38021581257F9501
:100140000175088106C0C005010906A1010507194E
:10015000E029E715002501950875018102950175D3
:100160000881010507190029FF150026FF009506E3
:100170007508810005081901290595057501910289
:10018000950175039101C00404000054040000901F
:100190000400009104000044454255473A20646938
:1001A0007361626C65642E0A0044454255473A20EB
:1001B000656E61626C65642E0A004F6E6573686FD0
:1001C000743A206163746976653A2025640A000AEE
:1001D000002530325820006B6579626F6172645F70
:1001E0007265706F72743A200029001E001F002093
:1001F00000210022002B0014001A0008001500172F
:10020000002B0704241621072809220A00E0001DFC
:10021000431B0006001900050000002800E3002A27
:10022000004C00E2002A00270026002500240023BD
:10023000003100130012000C0018001C002F0033C6
:10024000340F310E380D320B0038003800370036CD
:1002500000100011000000280000002C42000026C1
:1002600041007C1E021F02200221022202037C00A8
:100270000000000000000000000000E300E200E0D9
:1002800000E10000000000000000000000037C000E
:100290007C0000010000000000000000002D02278B
:1002A00002260225022402230200003000610060C1
:1002B000005F002F00670056005E005D005C005785
:1002C00000630054005B005A005900550000000113
:1002D00000000001000000620045003A003B003CC5
:1002E000003D003E00AB00000000000000000000E8
:1002F00000AE00E500E600E400E7000000AC004AC4
:10030000004B004E004D0000000000010001000104
:100310000001000100440043004200410040003F52
:1003200000A90000000000000000000000A8004F2D
:10033000005200510050000000AA00000000000020
:1003400000037C007C0000010000000000000000B1
:10035000000000000000000000000000000000009D
:10036000000000000000000000000000000000008D
:10037000000000000000000000000000000000007D
:100380000000000000067E000000000000000000E9
:10039000000000000000000000000000000000005D
:1003A000000000000000000000000000000000004D
:1003B00000067E000000000000B700B6000000004C
:1003C000000000D2000000D1005461726765742003
:1003D000636F6E6E65637465640D0A0054617267C5
:1003E000657420646973636F6E6E65637465642CF5
:1003F000207468726F74746C696E6720636F6E6EC0
:10040000656374696F6E20617474656D7074730DCB
:100410000A004661696C656420746F2065786563C5
:100420007574652025730A00556E69636F646520D5
:10043000696E707574206D6F646520696E697420D3
:10044000746F3A2025750A005B735D000A00253041
:100450003862003A200025303258000A722F63209B
:1004600030313233343536370A000A0025303258FD
:10047000006C65645F7461736B3A2000290A002583
:1004800075002F002575005D2800256400200025DB
:100490006400200025640020002564007C002530D5
:1004A0003258006D6F7573656B6579205B62746E91
:1004B0007C782079207620685D287265702F6163D2
:1004C0006C293A205B0042BD0401048E966E773E93
:1004D000FE7E5F1DB8F2664EFF5D19B0C20469541E
:1004E0002AD62EBFDD19B0C3E529B1E023A5A9B1F5
:1004F000C10082674C1A978D795120C7068E7C7C8B
:100500007A764FFD5930E2460E9EBEDF1D9991A0CE
:10051000A5A1A9D022C6EF5C1B958990A2A7CCFB10
:100520005528B3E44AF76C3BF46A562EDE1F9DB89B
:10053000D3058892A6CE1EBEDF1D99B0E246EF5CC1
:1005400007115D980B9D9497EE4E45336B44C72978
:10055000562730C6A7D5F256DFB43862CBA0B6E333
:100560000F84062405656F7689B577412782666515
:1005700082CCD5E620D52717C5F803237C5F64A578
:100580001DC1D636CB4CD4DB66D78BB1997E6F4C70
:10059000364006D6EBD7A2E4F495515A5496D5537B
:1005A00044D78CE0B94068D218E9DD9A239248EE2E
:1005B0007F43AFEA7738848C0A72AF69F8DDF124A3
:1005C00083A3F84ABFF59413DBBBD8B4B3A0FB45B3
:1005D00050603059123171A2D313E7FAE7CE0F639E
:1005E000150B6B94BB378326059DFB4692FC0A15C1
:1005F000D10D7392D68C1B8CB8558ACEBDFE8EFC65
:10060000ED0912839182513123FBB40C76AD7CD974
:10061000B44BB26714099C7F0C18BA3BD68E142ACF
:10062000E41B529F2B7DE1FB6A3302FAAC5AF23E87
:10063000887EAED1F378E805D1E3DC21F6E19ABDFE
:10064000170ED9469B8803EAF666BE0E1B504996E4
:100650004097F1F1E480A66EE87734BF294044C2A8
:10066000FF4E98D39CA3322B76510409E7A9D1A65B
:1006700032B12353E247ABD6F5695C3E5FFAAE4533
:1006800020E5D244FF39326DFD27575CFDF0DEC115
:10069000B599E5F51C770175C56D5892F2B2470022
:1006A0000126967A30FFB7F0EF77C18A5DDCC0D1C2
:1006B00029301E77387A94F1B87A7EEFA4D1AC3124
:1006C0004AF25D643DB2E2F00899FC70EE24A77E28
:1006D000EE1E20697D44BF8742DF883B0CDA42C9A9
:1006E00004F94550FC838F116A72BC9995F0AC3DBA
:1006F000A73BCD1CE2887937115F3989950A1684AA
:100700007AF68AA428E4ED83803BB123A50310F494
:1007100066EABB0C0FC5EC6C69C5D324ABD42AB711
:1007200099887608A0A8957CD8386DCD5902514B90
:10073000F1B52B50E3B6BDD072CF9EFD6EBB44C861
:10074000248A77188A1306EF977DFA81F031E6FA4A
:1007500077ED3106315B548A9F3068DBE240F84E1A
:1007600073FAAB748B105813DCD2E678D1322E8A30
:100770009F2C58064827C5A95E81478946219103C9
:1007800070A43E889CDA330ACEBC8B8ECF9FD37187
:100790008043CF6BA95183763082C56A8539115069
:1007A0001A82DC1E1CD57DA9719933471997B35A5B
:1007B000B1DFEDA4F2E62684A2289A9EDFA66AF4B1
:1007C000D6FC2E5B9D1A2A2768FBC183214B90E043
:1007D00036DD5B314255A013F7D089537199570923
:1007E00029C5F321F8372F40F3D4AF16083602FCA1
:1007F00077C58B049056B9C9679A99E800D386FFEC
:10080000972D08E9B7B391BCDF45C6ED0F8C4C1EA0
:10081000E65B6E3830E4AAE395DEB9E49AF5B255AA
:100820009A879BF66AB2F2779A31F47A31D11D0435
:10083000C07C32A29E9AF562F8278DBF51FFD3DFAC
:1008400064373F2A6F763A7D77069E777F5EEB327C
:1008500051F916669A09F3B008A470964630FFDA8B
:100860004FE91BED8DF8741F3192B3731736DB918E
:1008700030D688556B3477877AE7EE06C61C8C191C
:100880000C4846235E9C075CBFB47ED64F749CE246
:10089000C5508BC58B159060625729D01343A1803A
:1008A00088910044C74D1986CC2F2A755AFCEB97C6
:1008B0002A70E378D891B04F9907A395EA2421D5FF
:1008C000DE512093270A3073A8FF8A97E9A76A8E22
:1008D0000DE8F0DFECEAB46C1D392A622D3D5A8B2D
:1008E00065F890052E7E912C78EF8E7AC12FAC782A
:1008F000EEAF2845064C26AF3BA2DBA39306B53CE2
:10090000A5D8EE8FAF25CC3F856848A962CC978FDC
:100910007F2AEAE0150AAD6207BD45F841D836CB1B
:100920004CDB6EE63AE7DA15E9291E1210A0142C0A
:100930000E3DF4BF394192750B257BA3CE399C1532
:1009400064C8FA3DEF7327FE262ECEDA6EFD718E57
:10095000DDFE76EEDC125C02C53A4E4E4FBFCA4059
:1009600015C76E8D41F110E04F7E977F1CAE478E0C
:100970006BB12531B073C71B9779F980D3662230EC
:1009800007741EE4D08021D6EE6B6C4FBFF5B7D94B
:1009900009872FA914BE27D9725001D41373A6A7B3
:1009A00051027525E1B345347DA88EEBF31649CB92
:1009B0004F8CA1B9368539755D0800AEEBF6EAD7E4
:1009C000133A215A5F3084522695C914F257556B59
:1009D000B110C2E1BD3B51C0B7554C711226C70DD5
:1009E000F951A43802057FB8F1724BBF718914F335
:1009F0007738D97124F30011A1D8D4692708373585
:100A0000C9119D901C0EE71CFF2D1EE892E11810E5
:100A1000957CE080F4964321F975216438DD9F1EB2
:100A20009516DA561D4F9A53B2E2E418CB6B1A654D
:100A3000EB56C63BE5FED8263F3A84597266A2F3D0
:100A400075FFFB60B322AD3F2D6BF9EBEA057CD857
:100A50008F6D2C989E2B93F15E46F0874929736821
:100A6000D77FF9F0E57DDB1D7519F3C4589B178816
:100A7000A892E0BEBD8B1D8D9F5676ADAF29E2D901
:100A8000D552F6B55635573AC8E156431994D304B2
:100A90009B6D35D80B5F4D198EECFA64910A72206C
:100AA0002BBC1A4AFE8BFDBBED1B23EAAD7282A163
:100AB000299971BDF095C103DD7BC2B23C2854D3A6
:100AC00068A472C86696E0D1D87FF8D1262BF7AD1E
:100AD000BA55CA15B932C3E588978E5CFB92258B4F
:100AE000BFA245557AA76F8B575BCF0ECB1DFB205E
:100AF0008277A88CCC16CE1DFADECC0B62FECCE140
:100B0000B7F0C381647340A0C24D8911753355336A
:100B10008DE84AFDEA6E300BD7312CDE47E3BFF893
:100B20005542E27F59E517EF99346991B1238E2040
:100B3000872DA8FED58AF3843AF037E4090054EEF5
:100B4000674993E48170E3904DEFFE41B7997BC113
:100B500083BA62126F7DDE6BAFDA16F95551EEA6DD
:100B60000C2B02A3FD8DFB3017E46FDF3671C4CA76
:100B7000872548B047ECEAB4BFA54D9B9F0293C4BC
:100B8000E3E4E8422D6881150AEB845BD6A874FB88
:100B90007D1DCB2CDA462A7662CEBC5C9E8BE7CFDD
:100BA000BE78F57CEBB33A9CAA6FCC72D159F211A6
:100BB00023D63F48D1B7CEB0BFCBEA80DE57D45E54
:100BC000972F75D1508E802C6679BF724BBD8A816C
:100BD0006CD3E101DCD21526C536DA2C1AC0279475
:100BE000EDB79B850B5E8097C5EC4FEC885D500799
:100BF0003547DC0B3B3DDD60AFA85D813824255DCA
:100C00005C15D1DEB3ABEC0569EF83ED5754B864E6
:100C10006411163269DA9F2D7F36BB445A34E87F5F
:100C2000BF03EB007F59682279CF736C2C29A7A1F1
:100C30005F38A11DF02053E01A6314587110AA0800
:100C40000C3E161A6022827FBAA443A0D0AC1BD5FA
:100C50006B64B51493319E5350D05766EE5A4FFBD8
:100C6000032A695876F183F74EBA8C4206605D6DAF
:100C7000CE6088AEA4C3F103A54B98A1FF67E1AC99
:100C8000A2B862D76FA031B4D277AF211006C69A4E
:100C9000FF1D09170E5FF1AA54344B458A8763A6DE
:100CA000DCF9243067C6B2D6613369EE506157284B
:100CB000E77EEEEC3A5A734EA88DE418EAEC4164F4
:100CC000C8E2E866B62DB6FB6A6C16B3DD4643B9DA
:100CD00073006A71ED4E9D251AC33C4A95159935EE
:100CE000811402D6989BECD8233B8429AF0C9983BE
:100CF000A69A344FFAE8D03C4BD0FBB668B89E8F2A
:100D0000CDF7602D7A22E57DAB651B95A7A87FB650
:100D100077477B5F8B1272D0D491EFDE19503CA7DE
:100D20008BC4A9B323CB76E681F0C1048FA3B8545A
:100D30005B97AC19FF3F55272FE01D429B57FC4B9B
:100D40004E0FCE98A9435703BDE7C894DF6E3673A4
:100D500032B4EF2E857A6EFC6C188275359007F3ED
:100D6000E49F3EDC68F3B5F31980920699A2E86F20
:100D7000FF2E7FAE42A45FFBD40E812BC304FF2B5A
:100D8000B3744E365B9C1500C6472BE88B3DF19C37
:100D9000039A587F9B9CBF854979352E567B411419
:100DA00039478326AA078998111B86E7737AD87D6D
:100DB000786153E979F5368D449284F91350583BA4
:100DC000A46A3665498E3C0EF16FD284C47E8E3F94
:100DD00039AE7C84F163378E3CCC3E448145F14B87
:100DE000B9ED6B365DBB20601A0FA3AA55773AA9FF
:100DF000AE374DBAB8866BBC0850F6CCA4BD1D40CA
:100E000072A586FAE210AE3D584B97F34374A99E43
:100E1000EB21B701A4869397EE2F4F3B86A1416F3C
:100E2000412690785C7F30384B3FAAECED5C6F0E2A
:100E3000AD4387FD9335E601EF412690999EFB195E
:100E40005BADD2918AE046AF65FA4F84C1A12DCF48
:100E5000458BD38550557CF96788D44EE9D76B61B3
:100E600054A1A4A6A2C2BF309C409F5FD7692B2487
:100E7000825ED9D6A712541AF7559F7650A9958449
:100E8000E66B6DB59654D6CDB3A19B46A7944DC4E1
:100E900094B498E3E1E234D533160754CDB77753D1
:100EA000DB4F4D469DE9D49C8A36B6B838266C0E89
:100EB000FF9C1B438B80CCB93DDAC7F18AF26DB839
:100EC000D7742F7E1EB7D34AB4ACFC79486CBC965D
:100ED000B69446572DB0A3FC1EB95260852D41D063
:100EE00043011E1CD57DFCF3960DC7CB2A299A938E
:100EF000DD882D375DAAFB4968A09C50867F685627
:100F000057F9791839D4E001843361CAA5D2D6E4FF
:100F1000C98A4A23444EBCF0DC24A1A0C4E2073CA9
:100F200010C4B5254B6563F480E7CF61B1718221B0
:100F3000872CF59100320CECA9B59A7485E3368FB5
:100F4000764F9C6DCEBCAD0A4BED7604CBC3B93366
:100F50009E019396697DC5A245799B045C8409ED49
:100F60008843C7AB931426A140B5CE4EBF2A428515
:100F70003E2C3B54E8121F0E9759B22789FAF2DF34
:100F80008E6859DC06BCB6850D0622ECB1CBE504B3
:100F9000E63DB3B04173083F3C588663EB50EE1D0D
:100FA0002C3774A9D318A3476E9354AD0A5DB82AA1
:100FB000555D78F6EEBE8E3C7669B940C234EC2AB7
:100FC000B9ED7E20E48D0038C7E68F44A886CEEBCD
:100FD0002AE990F14CDF32FB731B6D921E95FEB433
:100FE000DB65DF4D23548948BF4A2E70D6D762B4E3
:100FF0003329B13A334C236DA676A5216348E69098
:101000005DED90950B7A84BEB80D5E630C62264C44
:10101000145AB3AC23A474A76F333005600142A007
:1010200028B7EE1938F164808243E141271F1F90F1
:10103000547AD5232ED13DCB28BA587FDC7C91241D
:10104000E92851836EC5562142EDA05622A1408069
:101050006BA8F794CA136B0C39D9FDE9F36FA69E00
:10106000FC708AB3BC593C1E1D6CF97CAFF98871C9
:1010700095EB5700BD9F8C4FE12483C522EAFDD339
:101080000CE217187C6A4CDE77B4539B4C81CD235D
:1010900060AA0E25739C02793230DF74DF7519F473
:1010A000A5145CF77AA8A591847C6003063BCD501B
:1010B000B6279CFEB1DDCCD3B05924B2CAE21C8164
:1010C000229D078F8EB9BE4EFAFC3965BABF9D12BC
:1010D000375E977EF389F55DF5E3098C62B5209D57
:1010E0000C538A681BD28F75175DD4E5DA756219C7
:1010F000146A262DEBF8AF37F06CA455B1BCE2337F
:10110000C09ACAB011494F689B3B6B3CCC13F6C7E1
:1011100085616842AEBBDDCD4516291DEADBC803FB
:10112000943CEE4F8211C3EC28BD970599DED7BBE6
:101130005E221FD4EB64D992D985B76A056AE4248C
:1011400041F1CDF0D83FF89E0ECD0B7A706B5A75F9
:101150000A6A3388EC17750870102F24CFC4E9424F
:10116000006194CA1F3A7606FAD24881F07760038C
:1011700045D961F4A46F3DD930C3046B542AB7EC50
:101180003BF44BF5685226CEFF5D1991A0A3A5A9AB
:10119000B1E023C40A774DF95120A3A5A9B1C1003C
:1011A00082868E7F5D1991A0A3C4EB540B756852A3
:1011B000078C9A978D79706246EF5C1B9589714117
:1011C000E121A1A1A1C002674C1AB6CFFD7853243A
:1011D000ABB5C9F16023A5C812876D5813858892F5
:1011E000876D5832C70C9A97ACDA36EE5E3EDF1D3B
:1011F000B8F2662FBDF87247ED5813858892878C38
:101200007B550990A2C6EF3DF85324ABD42AB7EC26
:101210005A36EE5E3EDF3CFA764FFD5930E246EF3D
:101220003DF853056931C10082868E7F5D19B0E2B9
:1012300027CCFB744B148B948B756833C50892874D
:101240008C9AB6CF1CBAD70D98B2E62FDC1B9589C5
:10125000716023C40A968F9CBAF66E3FFC5B15A89A
:10126000D226AFBDF872662FDC1BB4CB148B94AAC8
:10127000B7CDF951018082866F3DD930E227CCFB92
:10128000744B14AAB7CDF97043046B35C9F16023D0
:10129000A5C8F3450892876D5832E62FBDF87266EF
:1012A0004E1EBEFE7E7E7E5F1D9991A0A3C40A776E
:1012B0004D1893A4ABD40B754910A2C6EF3DF8535B
:1012C00024ABB5E833E44A16AEDE1FBCDB15A8B389
:1012D000C5087345E931C1E121A1A1A1C002866F12
:1012E0005C3AD70D9893A4CA16AEDE1F9D99B0E262
:1012F00046EF3DF872470C9AB6CFFD5911A0A3A551
:10130000C8F3450892876D39F043048A96AEDE3EF5
:10131000DF1D9991A0C2066F3DF872470C9A978D18
:10132000989385887345E931E023A5A9D003848A81
:1013300096AEDE1FBCDB15A8D226CEFF5D199181CB
:101340008082672DD813A4ABD40B94AAB7CDF951E2
:1013500020A3A5C8F345E95022C6EF5C3AD70D9803
:1013600093858873644AF74DF95120A3C40A96AE59
:10137000DE3EFE7E7E7E5F3CFA764FFD7872662F03
:10138000BDD930C3E54812878C7B5528D2078C9A8B
:1013900097ACDA178D795120A3C4EB540B948B943E
:1013A000AAD62EBFFC5B15A8D226AFDC1BB4EA3749
:1013B000EC3BF46A37CD1893856931C1E140E325F0
:1013C000C812878C9AB6CFFD5911A0C2068E7F5DD8
:1013D00038F2470C7B746A37EC5A36EE3FFC7A766B
:1013E0004F1C9B95897141006344EB542AD60F9C96
:1013F000BAD70D9893856931C10082868E9EBEDF73
:101400003CFA572CDA36EE3FFC5B158971410082BD
:10141000868E7F5D38F247ED5813A4CAF74DF95117
:1014200001806344EB542AD62EBFDD1991A0A3A5F9
:10143000A9B1E042068E7F5D1991A0A3C40A968FE0
:101440007D7872470C7B746A562EDE1FBCFA570DEE
:101450007951016121A1C0E325A9B1C1E140026731
:101460004C1A978D9893A4ABD42AD60F9C9BB4CBDF
:1014700014AAB7CDF95120A3C4EB35C9F1604206D7
:101480008E7F7C7A766E3FFC7A766E5E3EFE7E5F65
:101490003CDB15897141E121C0E344EB542AB7CD0F
:1014A000F9706227ADD832C70C7B744B14AAB7EC25
:1014B0003BD528D2076D39D120C2E74C1A978D98B9
:1014C000B2C70C5928F39B504D5733335858202836
:1014D0002564293A206669726D77617265207369A7
:1014E000676E61747572652076657269666963619D
:1014F00074696F6E206661696C6564210A00504DE5
:10150000573333585820282564293A206669726D6C
:10151000776172652075706C6F6164206661696CBB
:101520006564210A00504D573333585820282564EC
:10153000293A206D6F74696F6E3A203078257820D3
:1015400064783A2025692064793A2025690A005098
:101550004D573333585820282564293A2062757234
:1015600073740A0050574D33333630202830293AEF
:10157000207374617274696E67206D6F74696F6E29
:101580000A00556E69636F646520696E707574201A
:101590006D6F64652073657420746F3A2025750A39
:1015A000000000000000000000000000000000003B
:1015B000000000000000000000000000000000002B
:1015C00000000000007E0F00D4FFFFFFC7000000F6
:1015D0007800000000000000002A2B280000000016
:1015E00000000000000000000000000029000000D2
:1015F000002C1E3420212224342627252E362D3778
:1016000038271E1F202122232425263333362E3748
:10161000381F0405060708090A0B0C0D0E0F1011E0
:1016200012131415161718191A1B1C1D2F313023ED
:101630002D350405060708090A0B0C0D0E0F1011B5
:1016400012131415161718191A1B1C1D2F313035BB
:101650004C5B435D005B445D005B535D005B575D2D
:10166000005B525D0009027400040100A0FA090445
:1016700000000103010100092111010001224000C5
:1016800007058103080001090401000103010200AC
:10169000092111010001224700070582030800010A
:1016A00009040200010300000009211101000122C8
:1016B0003200070583032000010904030002030030
:1016C00000000921110100012222000705840320E6
:1016D00000010705040320000112010002000000C0
:1016E00008F8A83318000201020001300343006823
:1016F00000610072007900620064006900730020DC
:101700000028003400780036002900200045006CD5
:10171000006900740065002D0043000000240342AE
:101720000061007300740061007200640020004BCF
:10173000006500790062006F006100720064007350
:101740000000000403090428636861727962646917
:1017500073292070726F636573735F7265636F7254
:10176000645F6B623A20636F6E666967203D207B21
:101770000A09726177203D20307825582C0A097BB0
:101780000A090969735F647261677363726F6C6CD5
:101790005F656E61626C65643D25750A0909697350
:1017A0005F736E6970696E675F656E61626C6564B8
:1017B0003D25750A090964656661756C745F64701E
:1017C000693D3078255820282575290A0909736E46
:1017D0006970696E675F6470693D307825582028AC
:1017E0002575290A097D0A7D0A0011241FBECFEF45
:1017F000DAE0DEBFCDBF11E0A0E0B1E0E2E1FAE661
:1018000002C005900D92AA3DB107D9F723E0AAEDD9
:10181000B1E001C01D92AF34B207E1F70E94F92C8C
:101820000C94C0340C940000FF93EF93E091DA0124
:10183000F091DB01309709F00995EF91FF91089540
:10184000FC018591803011F0EFDFFBCF0895FF2779
:10185000E0E230E247FF0CC0419597FF09C0EDE29E
:101860006095709580959095611D711D811D911DEC
:1018700027FF02C0219530E350E2AA27660F771FA9
:10188000881F991FAA1FA41710F0A41B63955A95CF
:10189000A9F7AA3008F0A95FA05DAF93F395611591
:1018A00071058105910541F7ED3211F4EF93F39540
:1018B000F21718F43F93F395FBCF8F91B5DFFA95AC
:1018C000E1F70895E991F9918591803021F0853211
:1018D00019F0AADFF9CF089520E0E8945591553228
:1018E000C1F3503311F4689455915A3348F450536E
:1018F00090F3220F022E220F220F200D250FF4CF7E
:101900000EF4219589919991533619F3533729F1A2
:10191000533559F1BC0188279927E8945C3621F4A6
:101920008991999168945591543639F446EF7EF037
:1019300077FF0DC08FEF9FEF0AC055374AE039F0AF
:10194000583540E121F0523642E009F00895FF9306
:10195000EF937DDFEF91FF91B7CFFF93EF93FC0102
:1019600081918030B9F360DFFBCFFF93EF9368DFA5
:10197000F1CFDF93CF93CDB7DEB72596A3DFCF911D
:10198000DF910895E8EDF0E080818E7F80831092F2
:10199000E2001092DA001092E100A0EEB0E08C912B
:1019A00081608C9380818F77808319BCA7EDB0E034
:1019B0008C918E7F8C9380818F7E808310922C03FC
:1019C00008952091E4003091E50095E6A901209169
:1019D000EC00822F817020FF06C08091E80080FF1C
:1019E00006C080E008952091E80022FD1AC0809191
:1019F0003903882389F0853089F08091EB0085FDDB
:101A00000FC02091E4003091E50042175307F9F22E
:101A10009150E1F684E0089582E0089583E008950E
:101A200081E0089580913B0387FF13C08091E80017
:101A300082FF06C08091E8008B778093E80004C0A5
:101A4000809139038111F2CF089580913903882361
:101A5000D9F38091E80080FFF8CF8091E8008E777D
:101A6000ECCF982F9093E900242F762F50E0891720
:101A700031F07091EC002091ED005091F00021FDCB
:101A800007C09F5F973071F78093E90081E0089568
:101A90003091EB003E7F3093EB003091ED003D7FC5
:101AA0003093ED003091EB0031603093EB00709398
:101AB000EC002093ED005093F0002091EE0027FD04
:101AC000E0CF80E00895B0E0A0E0E9E6FDE00C940E
:101AD000FB33C8EDD0E088818F7E8883E7EDF0E0AE
:101AE00080818160808384E082BF81E080932C03C9
:101AF00088818E7F888302EE10E0F80110821092B8
:101B0000DA0081EEC82ED12CF601108288818F7701
:101B1000888388818068888388818F7D888319BCC9
:101B20001092390310923A0310923803109237033F
:101B300090EEE92EF12CF70180818B7F80838881E4
:101B40008160888342E060E080E00E94310DF60110
:101B500080818E7F8083F801808181608083808195
:101B600088608083F70180818E7F80838881806197
:101B70008883CDB7DEB7E8E00C941734FC01809180
:101B800041039091420386179707A0F061157105F4
:101B900029F49091E8009E779093E80090E0611519
:101BA000710551F4911108C08091E80082FF34C0A2
:101BB00080E00895BC01F2CF809139038823C1F100
:101BC0008530C1F18091E80083FD30C08091E8004C
:101BD00082FDEACF8091E80080FFE1CF8091F300A1
:101BE0002091F200382F6115710519F02830310568
:101BF00058F091E02830310509F090E02091E8009C
:101C00002E772093E800CBCF81918093F100615033
:101C100071092F5F3F4FE7CF80913903882341F04F
:101C2000853041F08091E80083FFBECF81E00895C8
:101C300082E0089583E0089580912E03089587E758
:101C400097E7909301088093000888E19AE00FB627
:101C5000F894A895809360000FBE90936000FFCF2A
:101C60009C014FB7F8948091440390914503A09153
:101C70004603B09147034FBF821B930B08952FB7C4
:101C8000F8946091440370914503809146039091CC
:101C900047032FBF08959C01FC0132969FEF80E01F
:101CA0004191461751F09F3F19F4411101C0982FFF
:101CB0008F5F8630A9F79F3F09F40895290F311DE2
:101CC00097FD3A95F90162830895A3E0B0E0EBE651
:101CD000FEE00C940134209126033091270328174D
:101CE0003907A1F09093270380932603E091240302
:101CF000F0912503309751F024E029839B838A8358
:101D00000680F781E02DCE01019609952396E2E049
:101D10000C941D34A3E0B0E0E0E9FEE00C94013443
:101D2000209122033091230328173907A1F09093C3
:101D3000230380932203E0912403F091250330973D
:101D400051F023E029839B838A830680F781E02D6D
:101D5000CE01019609952396E2E00C941D34E091A2
:101D60002403F0912503309721F00480F581E02DC4
:101D700009950895FC01680F791F8FEF91E3219178
:101D8000822728E030E087FF09C0880F892721508B
:101D90003109C9F7E617F70791F70895880FF7CFCC
:101DA0008091F70280FD16C081FD16C082FD16C02D
:101DB0008091F6028823A1F0803580F428E0829F8C
:101DC000C001112460E570E00E944834862F672B23
:101DD00039F0089582E0089584E0089588E0089538
:101DE00081E008958091F70280FD16C081FD16C044
:101DF00082FD18C08091F802882391F08C3390F412
:101E000023E2829FC00111246CE370E00E944834F9
:101E1000862F672B49F0089588E0089581E10895A1
:101E200085E0089583E2089581E00895813021F4EA
:101E3000FB01808180934C03089563E070E08DE6A0
:101E400092E00E94BA0E90916C02891318C0E09142
:101E50006D02EB30A4F488E0E802F0011124E75FA2
:101E6000FE4F0680F781E02D309749F020E932E0FF
:101E700040916F0260E772E080916E0209950895CB
:101E8000EAE5F2E0848980934101858980935401D9
:101E90000895F894E82FE295EF70F0E031A1282F33
:101EA0002F7081E090E001C0880F2A95EAF7982F03
:101EB0009095932391A392A1892B82A3789408955E
:101EC0009091D70292FF06C0282F28712830F9F48C
:101ED000877F846093FF06C0282F28712831F1F492
:101EE000877E84612091D80220FF06C0382F387188
:101EF0003830D9F4877F816021FF06C0282F2871F0
:101F00002831D1F4877E816194FD877E0895282F42
:101F100024712430F9F68B7F8860DCCF282F247160
:101F2000243101F78B7E8861DDCF382F317131305C
:101F300019F78E7F8860E0CF282F2171213121F79A
:101F40008E7E8861E1CF972F7A30B8F46630A8F49E
:101F5000843098F470E026E0929F600D711D11248A
:101F6000FB019CE3899FE00DF11D1124EE0FFF1F83
:101F7000E751FE4F85919491089580E090E0089597
:101F8000CF93DF93EC0182389105B9F108F041C09D
:101F90008133910509F49FC050F58932910509F408
:101FA0008FC08A9709F49EC0C11520E5D20708F0BA
:101FB000BDC0C11530E4D30708F00AC1C03ED10549
:101FC00008F0A5C0CD3CD10508F000C1C83AD10544
:101FD00008F08FC0C53AD10508F0F0C0C130D10576
:101FE00039F1209729F1C430D10510F546C0853369
:101FF000910509F460C0C997B9F68091D702837042
:1020000009F044C18091D80283FF12C0C9E2D0E038
:102010000FC0833E9105A1F178F4803E910509F14E
:10202000823E910509F0C0CF8091D70282FD21C088
:10203000CE01DF91CF910895863E910561F1873EF3
:10204000910571F1843E910509F0AECF8091D802DF
:1020500081FFEECF8091D702C7EED0E084FD0DC0A6
:10206000E7CF8091D70280FD33C09091D80290FFD6
:10207000DFCFC3EED0E084FFDBCFD0E0C0E0D8CF2D
:102080008091D70282FDFFC09091D80290FDFEC0E2
:1020900084FFCECFF2CF8091D70283FDDDCFC8CFB2
:1020A0008091D70283FDF5C09091D80291FFF0CFC7
:1020B000C4EED0E0BDCF8091D70285FFB9CFA6CFC7
:1020C0008091D70285FDE8C08091D80283FFB0CF10
:1020D000C9E3D0E0ADCF8091D70286FFA9CFCAE295
:1020E000D0E0A6CF8091D70286FFA2CFC1E3D0E097
:1020F0009FCFC13CD10508F6C85AD0E0CC0FDD1FF8
:10210000C957DE4F0990D881C02DD46491CFC11535
:1021100040E2D40708F0AAC0C11581E0D80708F052
:1021200087CFC83ED10508F483CFA7CFC03622E5BC
:10213000D20718F5C03432E5D30708F053C0C032D7
:1021400042E5D40708F047C0C11582E5D80708F476
:102150007FC02C2F2695269540E2249F90011124C4
:102160008C2F8370C1E0D0E002C0CC0FDD1F8A95B8
:10217000E2F7C22BD32BDD685BCFC03A22E5D20752
:1021800060F4C03832E5D30708F441C0CF71D0E025
:10219000DC2FCC27C46FD06A4BCFC03C42E5D407BC
:1021A00008F44AC0C03E82E5D80708F066CFDC2FAD
:1021B000CC27CC27DF71C06FD06A3ACFC55AD0E0A8
:1021C000CC57DE4FC881D0E0D06432CFD06530CF5D
:1021D000DF70D06A2DCFCF71D0E0DC2FCC27C16F5C
:1021E000D06A26CF2C2F26952695277080E2289F2F
:1021F000900111248C2F8370C1E0D0E002C0CC0F7D
:10220000DD1F8A95E2F7C22BD32BDC6811CF2C2F70
:1022100026952695277040E2249F900111248C2F4B
:102220008370C1E0D0E002C0CC0FDD1F8A95E2F7D9
:10223000C22BD32BDA68FCCE8C2F8F710E94600FDB
:10224000C82FD0E0DC2FCC27CC27DF71D062F0CEB6
:102250008C2F8F710E94600F35E0D695C7953A9507
:10226000E1F7CF709C2FEC01D069E2CE8D2F8F71FA
:102270000E94600F90E0982F882788279F719C010B
:102280002C2BE901E3CFC2EED0E0D2CEC0EED0E0FD
:10229000CFCEC6EED0E0CCCEC5E3D0E0C9CE8091A3
:1022A0004A02811110924A02089580959091490244
:1022B000982390934902089580913E0290910D02D7
:1022C000981301C008958F5F8770FACFB0E0A0E047
:1022D000ECE6F1E10C94FA337C010091D502109107
:1022E000D6028091D3029091D402082B192BCFE013
:1022F000D0E0CC24C394D12CBC2EC6010C2E02C03D
:10230000880F991F0A94E2F780239123892B49F4BF
:10231000219790F7B12C8B2DCDB7DEB7E9E00C9467
:102320001634B7018C2F0E94A30F0E94C00F019793
:1023300079F3F1CFCF93DF93EC010E946611BE01D8
:102340000E94A30F0E94C00FDF91CF9108959A3091
:1023500078F5863068F5E82FF0E086E0989FE00D8C
:10236000F11D11249E2F977083E0F695E7958A95CD
:10237000E1F7EE0FFF1FEE0FFF1FE951FE4F50E098
:1023800040E080E0219130E0092E02C0369527958B
:102390000A94E2F721703327042E01C0220F0A9419
:1023A000EAF7822B4F5F5F4F4430510559F708958C
:1023B00080E008959A3098F5863088F5E82FF0E0AF
:1023C00086E0989FE00DF11D11248E2F877041E06B
:1023D00001C0440F8A95EAF783E0F695E7958A9560
:1023E000E1F7EE0FFF1FEE0FFF1FE951FE4F30E048
:1023F00020E070E05191DF011197CB01022E02C065
:10240000969587950A94E2F78170819585278423B4
:1024100085278C932F5F3F4F2430310559F708955E
:102420009093D6028093D502089521E030E002C057
:10243000220F331F8A95E2F7209530958091D502BF
:102440009091D602822393230E94101208959091B6
:102450003F028095892380933F02282F277091F4B3
:10246000282F082E000C330B9217130659F0909169
:10247000D80292FF07C08595859585950E94151213
:1024800010923F02089521E030E002C0220F331F76
:102490008A95E2F78091D5029091D602822B932BF8
:1024A0000E94101208959093D4028093D30208954D
:1024B000FC0183819481892B29F08081918189237A
:1024C0008F3F51F480E00895843FE1F717C0883EC4
:1024D000A8F0813FB9F712C0808191810E949A11C2
:1024E00092959F70963099F358F4925F9F70923056
:1024F00048F7803F19F040F7883E20F781E00895C3
:102500009A5FF4CF829590E09C01220F331F220F37
:10251000331F2C7C95958795959587958373282BEC
:1025200030E0C901880F991F8A7A3595279525755E
:10253000822B08959C019A9581159F4130F4832F39
:10254000817031FF03C08260089580E0089590910A
:102550004A0280914902892B0E94600F982F927243
:1025600081E009F480E0089580914B0380FF3AC038
:1025700080914C03982F929593708F7044E6949FAE
:102580009001112428533F4F3F932F931F929F9305
:1025900098EC899F9001112420573E4F3F932F9331
:1025A0001F928F9380914C0387FB882780F91F929D
:1025B0008F9380914C0386FB882780F91F928F931D
:1025C00080914C031F928F9387E497E19F938F93A1
:1025D0000E94B90C8DB79EB740960FB6F8949EBF77
:1025E0000FBE8DBF0895CF9328E030E043E060E058
:1025F00086E30E943331C82F811105C00E940B323F
:102600008C2FCF91089585E08A95F1F70000F8CFDF
:102610009FB7F89410922A039FBF9091390394308A
:1026200009F048C02091E9002F703091EC00932F01
:10263000917030FD90E8922B24E02093E9002091E6
:10264000EB0020FF34C02091EE0027FF30C0209126
:102650002903222321F02091E80025FF28C01092B1
:10266000290326E03091E80035FF14C08093F10083
:102670008091E80085FD27C08091E80080FFFCCFB5
:102680008091E8008E778093E8009F709093E90036
:1026900080E0089530913903343049F43091EB00F3
:1026A00035FD05C0215041F481E0809329039F70DE
:1026B0009093E9008FEF0895EFE9FFE03197F1F78C
:1026C00000C00000CFCF8FB7F89421E020932A03F9
:1026D0008FBFDBCF0F931F93CF93DF938B01EA0163
:1026E00090913903943061F58093E9008FEF9091D8
:1026F000E800815095FD06C095ED9A95F1F7000030
:102700008111F5CF8091E80085FF1AC00E94E10C8D
:10271000811111C08091E80085FD06C08091E8001C
:102720008E778093E800F2CFF80181918F0180933A
:10273000F100219779F78091E8008E778093E80087
:10274000DF91CF911F910F91089543E050E0BC01BC
:1027500083E00E946A13089545E050E0BC0182E0E6
:102760000E946A130895CF93DF93EC0148E050E094
:10277000BC0181E00E946A1388E0FE01AFE2B3E091
:1027800001900D928A95E1F7DF91CF910895B0E025
:10279000A0E0EDECF3E10C94F6337C015B01842EB8
:1027A000752E69018091F00201E010E08A3010F48A
:1027B0000AE010E0C1E0D0E0B501C701F6010995DB
:1027C000982E811114C021960C171D07B4F4809126
:1027D0004B0380FF0CC07F928F9282E194E09F9325
:1027E0008F930E94B90C0F900F900F900F90892D2E
:1027F000CDB7DEB7EDE00C941234CC9F9001CD9FA5
:10280000300D300D112490E080E045E34A95F1F75A
:102810000000019628173907C1F7CECF80915902E1
:10282000811119C088EC90E02091E30027FD10C0D1
:10283000EFE3FCE93197F1F700C000000197A1F741
:1028400082E0809359020E94C20C1092390303C0A7
:1028500081E08093590281E090915902913011F00A
:1028600080E0089508950E940E14882359F0E091A5
:102870002403F0912503309729F00190F081E02D99
:102880000995089580E00895CF93DF93EC010E94AD
:102890000E14882331F0CE010E94A114DF91CF9154
:1028A0000895D0931C03C0931B03F8CF80914C0371
:1028B00086FF05C084E690E00E944414089587FFD7
:1028C00009C08295837024E6829FC0011124885339
:1028D0009F4FF2CF8F7028EC829FC0011124805748
:1028E0009E4FEACFA2E0B0E0E8E7F4E10C94FE33BB
:1028F000182FF62E0E94F312082F811106C000E057
:10290000802F2296E5E00C941A34103511F01092C5
:10291000430310681983FA8262E070E0CE010196E9
:102920000E94DB31892B59F78AEB8A95F1F700C0B9
:102930000E940B3283E492E00197F1F700C000009F
:10294000DFCF64E670E00E9434346150710968376B
:10295000710510F067E770E08FE00E94721408952F
:10296000CF93C82F0E94F3128823C9F08C2F0E94A6
:10297000AB318FE792E00197F1F700C000000E94B1
:10298000C331C82F95E09A95F1F700000E940B32F1
:1029900085E68A95F1F700008C2FCF910895C0E06D
:1029A000FBCF8FE00E94B0148F5F24E6829FC001AE
:1029B0001124089580931E03682F8CE090E00E94FC
:1029C000763480914B0380FF0EC080911E031F92CE
:1029D0008F9382E895E19F938F930E94B90C0F909B
:1029E0000F900F900F900895A6E1B0E0EAEFF4E1A8
:1029F0000C94FD334A8B052F5B8B162F6C8B7D8BD4
:102A00008E8B7E0187E0E80EF11C86E0F7011192C3
:102A10008A95E9F780914303811145C080914B036A
:102A200080FF0CC01F921F928FE495E19F938F93BC
:102A30000E94B90C0F900F900F900F9060E080E50E
:102A40000E94721481112CC086E0FE013796DE01CF
:102A5000119601900D928A95E1F786E0FE0131967C
:102A6000DE01179601900D928A95E1F78F8183FF21
:102A70005CC00B8B1C8B85E0FE017296DE011D96FF
:102A800001900D928A95E1F72D853E854F855889F5
:102A9000698970E080E090E06696E6E00C94193475
:102AA00081E0809343030E94F312882369F280E55A
:102AB0000E94AB31FAEBFA95F1F700C066E070E0E6
:102AC000C7010E94F3318F81877011F01092430388
:102AD0000E940B3280914B0380FF18C08C858F932E
:102AE0008B858F938A858F9389858F938F811F9292
:102AF0008F931F921F9285E295E19F938F930E947F
:102B0000B90C0FB6F894DEBF0FBECDBF89859A858C
:102B10009195819591099A8789878B859C85919557
:102B2000819591099C878B878FCF898187FD03C011
:102B300010921D039ECFEB80FC800D811E81809141
:102B40001D0381110FC081E080931D0380914B0311
:102B500080FF08C084E695E19F938F930E94B90C93
:102B60000F900F9020E890E8E9169FEFF90634F0F7
:102B700097012038310514F02FE730E080E8003865
:102B8000EFEF1E0734F0C8010038110514F08FE78D
:102B900090E02B8B8C8B6FCFA3E0B0E0E2EDF5E102
:102BA0000C94FD330E942B310E94F312882309F408
:102BB00099C025ED2A95F1F700000E940B3285EDB2
:102BC0008A95F1F700006AE58AE30E94721488236F
:102BD00009F488C09FEFE0E7F2E09150E040F04058
:102BE000E1F700C0000082E00E94B01483E00E9480
:102BF000B01484E00E94B01485E00E94B01486E016
:102C00000E94B0146DE183E10E947214882309F4DC
:102C10006DC08FE39CE90197F1F700C0000068E107
:102C200083E10E9472140E94F312882309F45EC0AB
:102C300082EE0E94AB3190E59A95F1F709EC14E031
:102C400087ECE82E84E1F82EF80184910E94AB31E4
:102C5000F0E5FA95F1F70F5F1F4FE016F106A1F7C7
:102C60008FE193E00197F1F700C000008AE20E9433
:102C7000B01460E080E10E9472140E940B32EFE316
:102C8000FCE93197F1F700C000006FE08FE00E948F
:102C900072148FE99FE00197F1F700C0000060E037
:102CA00080E10E94721467EE81E10E94721462E07A
:102CB00083E60E94721480E00E94B01489838FE33F
:102CC0000E94B0148A838AE20E94B0148B8343E08E
:102CD00050E0BE016F5F7F4F86EC94E00E94AA3403
:102CE000892BA9F42396E6E00C94193480914B03C8
:102CF00080FFF8CF1F921F928EEF94E19F938F93E6
:102D00000E94B90C0F900F900F900F90EBCF809115
:102D10004B0380FFE7CF1F921F9287EC94E1EECF29
:102D20000F931F93CF93DF938091490290914802B4
:102D3000892B8093DC0190914A02992391F0892B91
:102D40008093DC0120E08EED91E0FC013191CF0118
:102D500031112F5FF1E0843E9F07B9F721110E94E6
:102D60004F1148E050E060E472E08CED91E00E9489
:102D7000AA34892B09F441C088E0ECEDF1E0A0E42D
:102D8000B2E001900D928A95E1F7E0912403F09171
:102D90002503309791F10280F381E02D8CED91E0D5
:102DA000099580914B0382FF28C080FF04C087ED06
:102DB00091E00E94200CD0E0C0E001ED11E0809194
:102DC0004B0380FF0EC0FE01E452FE4F80811F9234
:102DD0008F931F930F930E94B90C0F900F900F9039
:102DE0000F902196C830D10551F780914B0380FF99
:102DF00004C08FEC91E00E94200CDF91CF911F91D5
:102E00000F910895882341F080959091480289237D
:102E1000809348020E9490160895882339F090917B
:102E20004802982B909348020E9490160895882398
:102E300021F00E9455110E9490160895882339F0C0
:102E400090914902982B909349020E949016089500
:102E500045E050E06DEF72E082E193E00E94AA3419
:102E6000892B21F082E193E00E94AF0E9091120332
:102E700085E0E2E1F3E0DF01282F1D922A95E9F7D2
:102E800090931203ADEFB2E001900D928A95E1F7B5
:102E90000895CF93C82F8091D80282FB992790F98B
:102EA0009C17F9F0C0FB82F98093D8026091D70299
:102EB0007091D80284E090E00E94943482E00E94F5
:102EC000271280914B0380FF0CC01F92CF938AEB97
:102ED00091E09F938F930E94B90C0F900F900F90E9
:102EE0000F90CF91089590914C039F70811115C060
:102EF0008FEF980F9F7080914C03807F982B909359
:102F00004C030E94561440914C0350E070E060E086
:102F10008FE090E00E948834089581E0EACF90919C
:102F20004C0392959370811117C08FEF980F937097
:102F30009295907F80914C038F7C982B90934C03BB
:102F40000E94561440914C0350E070E060E08FE026
:102F500090E00E948834089581E0E8CFB0E0A0E0DE
:102F6000E4EBF7E10C94FC337901C82F880FDD0BFB
:102F700041155105A9F0FE0193E0EE0FFF1F9A9550
:102F8000E1F7E75FFE4F81819281865A9D4F208154
:102F900030E04217530708F49A01A9010E94B734A0
:102FA000CE010E947B33D82E8823D1F00115110564
:102FB000B9F083E0CC0FDD1F8A95E1F7FE01E75FF2
:102FC000FE4F438150E00417150708F4A801C75FBE
:102FD000DE4F6C817D81665A7D4FC7010E94B734F8
:102FE0008D2DCDB7DEB7E7E00C941834A1E0B0E04A
:102FF000ECEFF7E10C94F833962E5A016901780151
:1030000001E010E09E012F5F3F4F50E040E070E094
:1030100060E00E94AE17182F882309F443C0F50121
:1030200040815181628173812FB7F894809144036C
:1030300090914503A0914603B09147032FBF841B95
:10304000950BA60BB70B84369105A105B10540F48D
:1030500065E070E0C7010E94BA0E9981891711F1ED
:1030600005E010E0960150E040E070E060E0892D5E
:103070000E94AE17D82E65E070E0C7010E94BA0E1C
:1030800011E09981981310E01D2139F00E943F0E44
:10309000F5016083718382839383812F2196EBE016
:1030A0000C94143485E0F701D60101900D928A95B5
:1030B000E1F7F3CFA5E0B0E0E0E6F8E10C94FD33F2
:1030C0007B010BE512E09E012F5F3F4F45EB52E085
:1030D00061E080E00E94F617882349F095E0FE0148
:1030E0003196A0EBB2E001900D929A95E1F795E050
:1030F000E0EBF2E0D70101900D929A95E1F7259669
:10310000E6E00C941934AAE0B0E0E9E8F8E10C94A8
:10311000FD330E940E14811142C005E612E09E01AB
:103120002A5F3F4F4FEB52E064E083E00E94F617C6
:10313000882391F095E0FE013696DE01119601900C
:103140000D929A95E1F795E0FE013196ADE0B3E07E
:1031500001900D929A95E1F7E0901B03F0901C030B
:10316000E114F104E1F02091BD023091BE022E1570
:103170003F05A9F0F0926B02E0926A0210E000E0D5
:1031800030E020E042E050E06AE672E085E00E9434
:10319000AE17882321F0F092BE02E092BD022A967B
:1031A000E6E00C941934A4E0B0E0E9EDF8E10C9409
:1031B000FF334091B9025091BA026091BB02709105
:1031C000BC022FB7F8948091440390914503A091DD
:1031D0004603B09147032FBF841B950BA60BB70B7B
:1031E00011E084369105A105B10538F10E940E1455
:1031F000882341F10E943F0E6E5F7F4F8F4F9F4F9C
:1032000069837A838B839C8310E000E030E020E0C8
:1032100044E050E0BE016F5F7F4F82E00E94AE1736
:10322000182F882351F00E943F0E6093B9027093CB
:10323000BA028093BB029093BC02812F2496E4E0F3
:103240000C941B340E943F0E0091C3021091C402E3
:103250002091C5023091C602600F711F821F931F1B
:10326000CBCF1F920F920FB60F9211242F933F9343
:103270004F935F936F937F938F939F93AF93BF937E
:10328000EF93FF938091E10082FF15C08091E200EF
:1032900082FF11C08091E1008B7F8093E10020913B
:1032A0002B032F5F822F62E30E942834992309F4B5
:1032B000C0C020932B038091DA0080FF28C080914A
:1032C000D80080FF24C08091DA008E7F8093DA00DE
:1032D0008091D90080FFE3C080E189BD82E189BD92
:1032E00009B400FEFDCF81E08093390381E596E1CA
:1032F0000E94200C80912C03811109C00E94C20CF5
:103300000E94630D8091E20084608093E2008091CE
:10331000E10080FF1BC08091E20080FF17C0809118
:10332000E2008E7F8093E2008091E20080618093D2
:10333000E2008091D80080628093D80019BC85E0BB
:103340008093390389E596E10E94200C8091E10089
:1033500084FF2FC08091E20084FF2BC080E189BDF3
:1033600082E189BD89B5982F917080FFFBCF809154
:10337000D8008F7D8093D8008091E1008F7E80936C
:10338000E1008091E2008F7E8093E2008091E20074
:1033900081608093E20080913A03882309F489C018
:1033A00084E0809339038DE596E10E94200C8091A2
:1033B00039038091E10083FF2BC08091E20083FFFD
:1033C00027C08091E100877F8093E10082E08093B5
:1033D000390310923A038091E1008E7F8093E100DF
:1033E0008091E2008E7F8093E2008091E200806114
:1033F0008093E20042E060E080E00E94310D809125
:10340000F00088608093F00081E696E10E94200C35
:10341000FF91EF91BF91AF919F918F917F916F91AC
:103420005F914F913F912F910F900FBE0F901F9082
:10343000189510922B0380912A03882309F43BCF1F
:10344000809139038430C1F49091E9009F702091FC
:10345000EC00822F817020FD80E8892B94E090930E
:10346000E9009091EB0090FF04C09091EE0097FD71
:1034700008C08F708093E90010922A031CCF10922D
:10348000F1009091E80095FDFACF9091E80090FF4F
:10349000F0CF9091E8009E779093E800EACF19BCB6
:1034A0001092390385E596E10E94200C10922C03BE
:1034B0002ECF8091E30087FD93E09093390373CF83
:1034C00078941F921FB61F9211248F939F93AF93EE
:1034D000BF938091440390914503A0914603B0911E
:1034E00047030196A11DB11D8093440390934503AA
:1034F000A0934603B0934703BF91AF919F918F91E3
:103500001F901FBE1F9018952FB7F8948091440309
:1035100090914503A0914603B09147032FBF0895B2
:10352000A9E1B0E0E6E9FAE10C94FC330E940E1444
:10353000882309F441C14091170350911803609109
:10354000190370911A032FB7F89480914403909156
:103550004503A0914603B09147032FBF4817590771
:103560006A077B0709F428C10E943F0E6093170386
:10357000709318038093190390931A030E940E14FA
:10358000882309F41DC140911203509113036091E7
:10359000140370911503809116030E94F414209374
:1035A0001203309313034093140350931503609355
:1035B000160385E0E2E1F3E0DE01169601900D923C
:1035C0008A95E1F7D0901303D194DF8285E0FE0164
:1035D0003696DE01509601900D928A95E1F785E0CE
:1035E000FE017096DE01119601900D928A95E1F729
:1035F00085E0FE013196A2E1B3E001900D928A953B
:10360000E1F785E0E2E1F3E0DE01559601900D92ED
:103610008A95E1F70091130310911403E0901503CC
:10362000F09016030E940E14882309F495C080912F
:103630004C0386FF44C020910403309105032D0DF7
:10364000311DD7FC3A9530930503209304038091F4
:10365000020390910303810F911D17FD9A9590939A
:10366000030380930203A90137FF04C044275527B1
:10367000421B530B473051055CF0FF24FA9412169D
:10368000130614F4FF24F39410920503109204031C
:103690009C0197FF04C022273327281B390B2730B2
:1036A00031055CF0EE24EA941816190614F4EE24A1
:1036B000E394109203031092020310E000E00E8BDB
:1036C0001F8BE88EF98E85E0FE017596DE011B9654
:1036D00001900D928A95E1F7802F002E000C990B36
:1036E00097FF03C091958195910909975CF4812F0B
:1036F000012E000C990B97FF03C0919581959109BC
:1037000009977CF08091060390910703892B19F4A7
:1037100083E00E9443120E94841A909307038093CF
:10372000060385E0FE013B96DE01119601900D92A5
:103730008A95E1F785E0FE013196DE01169601904B
:103740000D928A95E1F785E0FE013696DE015596E9
:1037500001900D928A95E1F70E8B1F8BE88EF98E02
:1037600085E0FE017596DE01169601900D928A9510
:10377000E1F785E0FE013696DE011B9601900D9281
:103780008A95E1F785E0FE013B96A2E1B3E0019066
:103790000D928A95E1F785E0E8E0F3E0DE011B9603
:1037A00001900D928A95E1F7809112039B85892BF8
:1037B000809312030E9428176996E7E00C9418344E
:1037C00085E0EDE0F3E0A2E1B3E001900D928A958F
:1037D000E1F7EFCE80914B0383FF7EC083EA94E054
:1037E0000E94200C809108031F928F938EE994E031
:1037F0009F938F930E94B90C8CE994E00E94200C57
:1038000080910903282F082E000C330B3F938F93D0
:1038100089E994E09F938F930E94B90C87E994E023
:103820000E94200C80910A03282F082E000C330BD5
:103830003F938F9384E994E09F938F930E94B90CF8
:1038400082E994E00E94200C80910B03282F082E1F
:10385000000C330B3F938F938FE894E09F938F93EB
:103860000E94B90C8DE894E00E94200C80910C031A
:10387000282F082E000C330B3F938F938AE894E097
:103880009F938F930E94B90C87E894E00E94200CCC
:103890008091F8021F928F9384E894E09F938F9316
:1038A0000E94B90C82E894E00E94200C8091F702FB
:1038B0001F928F938FE794E09F938F930E94B90C90
:1038C0008CE794E00E94200C8DB79EB74C960FB603
:1038D000F8949EBF0FBE8DBF0E94841A9C019091E8
:1038E000090380910A03982B21F03093FC02209366
:1038F000FB0290910B0380910C03982B21F03093E5
:10390000FA022093F90288E093E00E94AF0E089536
:1039100010924902EEEDF1E086E0DF011D928A95FA
:10392000E9F790E080E00E948A0E90E080E00E943B
:10393000650E109248020E94901685E0E8E0F3E0E0
:10394000DF011D928A95E9F71092F8021092F602B3
:103950001092F7020E94EA1B0895AAE2B0E0E3EB9E
:10396000FCE10C9400348BE393E02091F100DC0146
:103970002D93CD01B3E083349B07B9F780913C03CD
:10398000833009F472C0B8F4813009F449C0823040
:1039900009F4B3C08091E80083FF8BC280913B03A0
:1039A00090913C039A3008F084C2E92FF0E0EE5386
:1039B000FB4C0C945C348A3009F48EC08B3009F4D3
:1039C00071C0893039F780913B03813219F78091BA
:1039D0003F0390914003009711F00297D9F6809130
:1039E000E800877F8093E8008091E80082FF38C07C
:1039F0009091F3008091F200029731F48091F100F0
:103A0000813011F0863021F48091F10080932E03F3
:103A10008091E8008B778093E8000E94120DBACF66
:103A200080913B03813A09F0B5CF8091E800877F10
:103A30008093E80080913F0390914003892B61F4CB
:103A400068E08FE293E070E00E94BE0D8091E80094
:103A50008B778093E8009ECF60E090E080E0F3CF2A
:103A6000809139038111C0CF95CF80913B03813A7A
:103A700009F090CF80913F0390914003892B09F08A
:103A800089CF8091E800877F8093E8008091E800EB
:103A900080FFFCCF809161018093F1008091E8006C
:103AA0008E77B9CF80913B03813209F073CF80913B
:103AB0003F0390914003892B09F06CCF8091E8007F
:103AC000877F8093E8000E94120D80913D038093D0
:103AD00061010E94881C5ECF80913B03813209F016
:103AE00059CF8091E800877F8093E8000E94120DF3
:103AF00080913E0380932D034DCF80913B03813A0B
:103B000009F048CF8091E800877F8093E80080919A
:103B1000E80080FFFCCF80912D03BECF803899F064
:103B2000823809F0C6C180913F038F70873008F05A
:103B3000C0C18093E9008091EB0085FB882780F964
:103B40001092E90006C080913703909138039111DB
:103B500082609091E800977F9093E8008093F10055
:103B60001092F1008091E8008E779FC1882309F4BC
:103B70008DC1823009F09DC180913D03811190C1BA
:103B800080913F038F702FEF280F263008F091C1EE
:103B90008093E9002091EB0020FF82C1933031F443
:103BA0008091EB0080628093EB007AC19091EB00F2
:103BB00090619093EB0021E030E001C0220F8A95E4
:103BC000EAF72093EA001092EA008091EB00886007
:103BD000EACF81116EC110913D031F778091E30000
:103BE0008078812B8093E3008091E800877F809329
:103BF000E8000E94120D8091E80080FFFCCF8091C8
:103C0000E30080688093E30082E0111183E08093F9
:103C100039034FC18058823008F04BC120913D03D9
:103C200030913E032C3DE3E03E07A1F583E08A831B
:103C30008AE289834FB7F894DE01139620E03EE0D4
:103C400051E2E32FF0E050935700E49120FF03C0CE
:103C5000E295EF703F5FEF708E2F90E0EA30C0F09A
:103C6000C7968D939D932F5F243159F74FBF809155
:103C7000E800877F8093E8006AE270E0CE01019659
:103C80000E94BE0D8091E8008B778093E80011C1FF
:103C9000C096E7CF80913F0390914003432F552773
:103CA0004330510509F44AC078F54130510509F413
:103CB0007AC084E790E0E5E6F6E14230510509F08C
:103CC000F8C02091E800277F2093E800209141036D
:103CD000309142038217930708F49C0140E02115BC
:103CE000310509F065C0411163C08091E80082FD93
:103CF000C9CF80913903882329F2853019F2809148
:103D0000E80083FFF2CFBECF4132510509F43CC039
:103D10004232510509F0CDC08430910508F0C9C088
:103D2000FC01EE0FFF1FE653FE4F0190F081E02DE6
:103D30008A539E4FDC018C9190E01AC033272130CA
:103D40003105D1F02115310561F02230310509F03E
:103D5000B0C0EBEEF6E1E4918E2F90E0EBEEF6E1F1
:103D600007C0E3E4F7E1E4918E2F90E0E3E4F7E1AC
:103D7000009709F49EC0A5CFEDE1F7E1E4918E2F05
:103D800090E0EDE1F7E1F4CF8430910508F091C0C7
:103D9000880F991FFC01EE52FE4F0190F081E02D3B
:103DA00089E090E08ECF82E190E0E9EDF6E189CF05
:103DB00080913903882309F465CF853009F462CFF7
:103DC0008091E80083FD5ECF8091E80082FD8DCF79
:103DD0008091E80080FF83CF9091F3008091F20002
:103DE0002115310519F08830910550F041E0089710
:103DF00009F040E08091E8008E778093E8006FCF73
:103E000044914093F1003196215031090196E8CF59
:103E1000803809F04EC08091E800877F8093E800E9
:103E200080913A038093F1009DCE811142C01091A0
:103E30003D031230F0F58091E800877F8093E80021
:103E400010933A030E94120D112311F084E005C073
:103E50008091E30087FDFACF81E08093390342E04F
:103E600061EC81E00E94310D42E061EC82E00E9451
:103E7000310D42E261EC83E00E94310D42E261ECDF
:103E800084E00E94310D8091390313C080913D037D
:103E9000813079F481E0933009F080E08093380339
:103EA0001092E9008091E800877F8093E8000E94EB
:103EB000120D8091E80083FF0AC08091E800877F9F
:103EC0008093E8008091EB0080628093EB00AA96DB
:103ED000E3E00C941C341F920F920FB60F92112442
:103EE0002F933F934F935F936F937F938F939F9302
:103EF000AF93BF93CF93DF93EF93FF93D091E900FC
:103F0000DF708091EC00C82FC17080FDC0E8109276
:103F1000E9008091F000877F8093F00078940E9400
:103F2000AD1C1092E9008091F00088608093F00051
:103F3000CD2BCF70C093E900FF91EF91DF91CF912E
:103F4000BF91AF919F918F917F916F915F914F91B1
:103F50003F912F910F900FBE0F901F9018950E94C8
:103F6000881C2FEF84E39CE0215080409040E1F7D3
:103F700000C0000088E19AE00FB6F894A8958093FD
:103F800060000FBE90936000FFCF662309F472C0FB
:103F90008D3C41F40E94F20E819580930A030E94A9
:103FA000EA1B08958E3C19F40E94F20EF6CF8F3C66
:103FB00031F40E94F20E819580930903F0CF803D89
:103FC00019F40E94F20EF8CF893D29F40E94D00E18
:103FD00080930B03E4CF8A3D21F40E94D00E81959B
:103FE000F7CF8B3D31F40E94D00E819580930C0366
:103FF000D6CF8C3D19F40E94D00EF8CF9FE2980FD7
:10400000983020F5282F215D330BA90121E030E005
:1040100001C0220F4A95EAF790910803922B9093E2
:104020000803815D21E030E0A90102C0440F551F63
:104030008A95E2F7CA0120911203662309F493C01E
:10404000822B809312030E94281708958D3D31F42E
:104050008091F70281608093F702A1CF8E3D21F419
:104060008091F7028260F7CF8F3D19F58091F702BA
:104070008460F1CF909109038D3C59F420910A039B
:1040800027FF0DC010920A0391110BC01092F80285
:1040900008C08E3CB1F420910A0312169CF39923B8
:1040A000B1F090910B0320910C03922B11F410921C
:1040B000F602482F415D550B4830510508F4B1CF49
:1040C0006ECF8F3C39F497FFEACF1092090390919D
:1040D0000A03DACF803D19F41916BCF3E0CF209122
:1040E0000B03893D29F41216D4F610920B03D7CF97
:1040F0008A3D19F427FFD3CFF8CF20910C038B3DD5
:1041000029F427FFCCCF10920C03C9CF8C3D19F4B2
:104110001216CCF3C4CF2FE2280F283088F4282FB2
:10412000215D330BA90121E030E001C0220F4A9547
:10413000EAF7209530910803232320930803AFCF9B
:104140002091F7022E7F8D3D59F02091F7022D7FAF
:104150008E3D31F08F3D09F0A2CF2091F7022B7FE9
:104160002093F7029CCF809582236BCF8823D1F1D7
:104170009CEF980F913A78F4EEEDF1E0919189136C
:1041800003C0DF0111971C9291E0E43EF907B1F7FB
:104190000E949016089590E2980F983050F487701E
:1041A00091E001C0990F8A95EAF7892F0E94551175
:1041B000EFCF9BE5980F933028F490E080E00E94C9
:1041C0008A0E089598E5980F993128F490E080E0E0
:1041D0000E94650E089593E3980F933118F460E000
:1041E0000E94C51F0895CF93C82F8823B1F08CEF8C
:1041F0008C0F813A00F5EEEDF1E084EE91E0DF0105
:104200002D91C21761F08A179B07D1F76C2F8CEDA7
:1042100091E00E944B0E0E949016CF91089521913B
:10422000C21303C0DF0111971C928E179F07B9F7C5
:104230000E949016EBCF80E28C0F883068F4C77034
:1042400021E030E001C0220FCA95EAF780914902CF
:10425000822B80934902DFCFEBE5EC0FE33040F493
:10426000F0E0EC57FE4F808190E00E948A0ED5CF9F
:10427000E8E5EC0FE93150F4F0E0EE0FFF1FE957ED
:10428000FE4F808191810E94650EC7CF83E38C0F22
:10429000833118F661E08C2F0E94C51FBECF1F939B
:1042A000CF93DF93182FD0E0C0E0893311F4C0E53D
:1042B000D0E0812F0E94F320209739F4812F0E94B3
:1042C000B620DF91CF911F9108958FE99FE001976C
:1042D000F1F700C000002197EFCF0F931F93CF930A
:1042E000DF93C62FD42F022FFC0182818823A9F0EF
:1042F00060934A030E94841A909349038093480371
:10430000C77081E001C0880FCA95EAF70E941E17A6
:10431000DF91CF911F910F91089580914A03681307
:1043200032C080914803909149030E94300E883C2E
:10433000910548F510E21D0FCD17B9F080E28C0F02
:10434000883040F4C77081E001C0880FCA95EAF751
:104350000E941717183048F481E09D2F977001C014
:10436000880F9A95EAF70E941E17802F0E944F210E
:10437000183070F6D77081E001C0880FDA95EAF73F
:104380000E941717C5CFC77081E001C0880FCA957A
:10439000EAF7F6CFB0E0A0E0E0EDF1E20C94FC33F8
:1043A000E82FF0E0EF52FA4ED490282F269526956C
:1043B000269530E0F901EF53FA4E0491877010E032
:1043C000082E02C0159507950A94E2F7017011278F
:1043D000F901EF54FA4EE490F12C082E02C0F59446
:1043E000E7940A94E2F791E0E922FF24F901EF55FE
:1043F000FA4EC491D0E002C0D595C7958A95E2F7F0
:10440000C170DD270115110519F081EE0E94F3201E
:10441000E114F10419F086EE0E94F3208D2D0E9424
:104420004F21E114F10419F086EE0E94B620011527
:10443000110519F081EE0E94B620CD2B19F08CE207
:104440000E944F21CDB7DEB7E7E00C94183490916D
:104450001E03923071F48A3050F490E009966AE0BD
:1044600070E00E944834875A0E944F210895865078
:10447000FBCF96EF980F963020F0805D0E94CA2106
:104480000895895AFBCF8F929F92AF92BF92EF927D
:10449000FF920F931F93CF93DF934B015C01D09159
:1044A0001E038CE1E82EF12C07E010E021E0D5019D
:1044B000C4010E2C04C0B695A795979587950A94CC
:1044C000D2F7C82FCF70222339F0D43051F4CA303C
:1044D00040F080E00E9427228C2F0E94272220E0BB
:1044E00005C0C111F9CF04301105B4F30150110911
:1044F00084E0E81AF1080F3F1007C9F6DF91CF9169
:104500001F910F91FF90EF90BF90AF909F908F9071
:104510000895CF92DF92EF92FF920F931F93CF9364
:104520008C017B016C0180EEC81AD108C8010E9481
:104530009A12C82F98E0C916D104D0F40E941E1711
:10454000802F0E94F320E114F104A9F4802F0E942F
:10455000B62088E0C816D104C0F48C2F0E9417172B
:10456000CF911F910F91FF90EF90DF90CF90089522
:104570000E940D17E5CF8FE99FE00197F1F700C08A
:10458000000091E0E91AF108DECF8C2F0E9402179B
:10459000E7CFA5E0B0E0EFECF2E20C94F7337C015A
:1045A000DC0113968D919C911497892B39F08C9195
:1045B00011969C9189238F3F09F045C52596ECE023
:1045C0000C9413340E946611182F682F89819A81E8
:1045D0000E94DA1169817A81812F0E94A30F8C01D8
:1045E0006C01BEE7DB1AE8E0CE16D10480F4F601D8
:1045F000E453FB4CD70112968C910C945C348823C5
:1046000031F00E94A71291E089270E947317B8E049
:10461000CB16D10428F0C8018D5C9109439710F4A2
:104620000E94B412F7018281882309F45AC004332E
:10463000FCE71F0709F419C108F043C002333CE747
:10464000130709F44BC003338CE7180709F049C07E
:1046500081E045C08823D9F20E94A712D6CF8823D3
:10466000B1F20E94A71291E089270E948F17CFCF45
:10467000882369F20E94A712F8CF90914C0380FB27
:1046800097F990934C030E945614C1CF882309F4E4
:10469000BECF90914C03892F97FB87F98058809368
:1046A0004C03F1CF90914C0380FB96F9EACF88231D
:1046B00009F4ADCF90914C03892F8F7B96FF8064D6
:1046C000EECF06339CE7190709F4D3C008F4CFC036
:1046D0000733BCE71B0729F485E001C080E00E9496
:1046E000DA1417FF2EC1F7018281882309F49DC0D7
:1046F0000115F0EC1F0708F4BEC0809148029091AC
:104700004902892B90914A02892B8272DD24D3942D
:10471000811101C0D12C0E94331486958170F8015B
:104720008D1529F0EE0FEF2FEE1FFF0BF195EF77B0
:10473000FF27EE0FFF1FEE0FFF1FE957FE4F85907B
:104740009590A590B4908114910421E1A206B10442
:1047500008F06BC08114910431E0A306B10428F085
:1047600080911E03823009F460C00E94331480934C
:10477000E50190911E03913029F481FF03C089E384
:104780000E944F21809149028093E40110924902D6
:104790001092480280911E03823009F490C008F004
:1047A0006DC0882309F480C0813009F481C0AFE373
:1047B000BCE91197F1F700C0000081149104B1E049
:1047C000AB06B10408F494C080911E03811190C01F
:1047D000E1E0AE1AB108C501B4014AE096958795AB
:1047E000779567954A95D1F778528F4F9F4F0E94E2
:1047F0004322F3E09F22AA24BB24C501B4017452D2
:104800008F4F9F4F0E94432280911E03823009F4F4
:104810008DC008F070C0882309F479C0813009F494
:104820007AC08091E40180934902D70112968C915D
:10483000882309F431C410924A03C8019057839722
:1048400008F014C484E090E00E9470349093D80281
:104850008093D702F801E150F047E232F10508F009
:10486000ABC0EC52FB4C0C945C3482E038CF83E05C
:1048700036CF84E034CFF801FF735BCF843099F1F9
:10488000853009F094CF70E060E08BE191E00E9408
:10489000892270E060E085E290E00E94892270E069
:1048A00060E088E290E008C082EE0E94F3207FCFB3
:1048B00070E060E088E193E00E94892278CF8091E7
:1048C000E50180FD03C083E50E944F2182EE0E9436
:1048D000F3208FE39CE90197F1F700C0000087E522
:1048E0000E944F2164CF86EE0E944F2188E1F8CFCD
:1048F000C501B40187CF843011F1853009F091CF23
:1049000070E060E088E290E00E9489228ACF82EE27
:104910000E94B62086CF8CE20E944F218091E50153
:1049200081FF7FCF89E30E944F217BCF82EE0E94DF
:10493000B6208091E50180FD74CF83E5F4CF88E255
:10494000F2CFF801E851FC47E730F10508F06DCFF0
:10495000EA50FB4C0C945C3426E241EE61EEC70158
:104960000E946D2180913F02877009F427CED70104
:1049700012968C91882309F421CE8091D80282FF6F
:104980001DCE82E00E94271219CE27E245EE65EE89
:10499000E6CF26E241EE60EEE2CF27E245EE64EE9E
:1049A000DECF26E241EE62EEDACF27E245EE66EE9A
:1049B000D6CF28E241E0EBCF8091D702816080938F
:1049C000D70295C08091D80288608093D8028FC0AA
:1049D0008091D7028260F3CF8091D7028460EFCFBD
:1049E0008091D7028860EBCF8091D8028160EDCFB3
:1049F0008091D8028260E9CF8091D7028061DFCFB9
:104A00008091D7028062DBCF8091D7028064D7CFBC
:104A10000E94881C8091D7028068D1CF8091D702F4
:104A20008C60CDCF8091D8028360CFCF8091D702A8
:104A30008E7FC5CF8091D802877FC7CF8091D70264
:104A40008D7FBDCF8091D7028B7FB9CF8091D70268
:104A5000877FB5CF8091D8028E7FB7CF8091D80263
:104A60008D7FB3CF8091D7028F7EA9CF8091D7025F
:104A70008F7DA5CF8091D7028F7BA1CF0E94881C0C
:104A80008091D7028F779BCF8091D702837F97CF7A
:104A90008091D8028C7F99CF8091D70282FB992791
:104AA00090F921E0922790FB82F990FB83F987CF60
:104AB0008091D802982F909591708E7F892B90FBD2
:104AC00081F983CF9091D702892F8F7B96FF8064E5
:104AD00076CF0E94881C9091D702892F97FB87F987
:104AE00080586DCF61E08EE090E00E947634609156
:104AF000D7027091D80284E090E00E9494340E9422
:104B0000881C30CF60E0EFCF9091D702892F8F7E45
:104B100094FF806154CF9091D702892F8E7F90FFB0
:104B200081604DCF9091D802892F877F93FF886055
:104B30004CCF85E3BBC290914B03892F8E7F90FFB2
:104B4000816080934B0380FF05C089EA91E00E9459
:104B5000200C08CF87E991E0FACF6FEF7FEF90E06C
:104B600080E00E9494340E94AF1F8091D80282FBA3
:104B7000882780F991E089270E944917F7018281EF
:104B800000811181882309F446C0C8010E94661182
:104B9000D82E682FC8010E94DA11B8018D2D0E940D
:104BA000A30F0E94C00F8C01882ED7011296DC90B3
:104BB00012971596BC90B2943FE0B32280913F02C9
:104BC0008770C1F0AD2CDD20B1F0812F807F803463
:104BD00021F080E2800F883068F08091D80282FF57
:104BE00009C082E00E94271280913F028770AA24A8
:104BF000A3948111A12C912E92942FE09222BBE0DC
:104C0000B91508F474C0E92DF0E0E350FB4C0C94A6
:104C10005C3480E0B1CFC8010E94A711D82EBDCF6F
:104C2000E12FEF70CE2E107F19F0C29490EFC922C1
:104C3000DD20B9F0CC2069F080E2800F883010F0E0
:104C4000811009C080914902C82AC09249020E947D
:104C50009016802F4AC080914802C82AC09248020C
:104C6000F6CF802F0E94B620CC2009F440C0005E11
:104C7000083010F0811004C08C2D0E94551106C020
:104C8000C09480914802C822C09248020E949016A7
:104C90002EC0F12FFF70CF2E107F103219F0C2946A
:104CA00080EFC822882089F021E0821609F47CC0B8
:104CB000DD2009F486C0BB2009F47CC0F7018581A2
:104CC00080FFC7CF8F70858375C02091D80222FDE9
:104CD00043C0DD20D9F1CC2039F080914902C82AA7
:104CE000C09249020E94901680E00E94F320A92DF4
:104CF000A850BB0B149710F40E943314AA20A9F0FB
:104D000080913F0280FD11C0F70112828595859543
:104D100085950E944312C7010E94C92280913F02DB
:104D20008595859585950E94151285E0F701DE0130
:104D3000119601900D928A95E1F709811A81C801B7
:104D40000E94A711B8010E94A30F38CC80E00E94F6
:104D5000B620CC2061F290CFDD20A1F090914A02E4
:104D60008C2D892BB11003C00E941E17C0CF31E0DB
:104D7000B312FACF22FFBBCF981709F4B8CF8093B4
:104D80004A02B5CFB11006C00E944F118C2D0E946F
:104D90001717ADCF81E0B81609F4A9CF8C2D0E946A
:104DA00017170E944F11A3CFDD2031F095E09B151E
:104DB00008F49DCF8C2DD8CFA4E0AB1508F497CF85
:104DC000E5CFBB2019F3F9E38F1209C02FEF37EEBF
:104DD00083E0215030408040E1F700C00000802F88
:104DE0000E94B62084CF812F86958695837061F0CE
:104DF000813009F07CCFC8019370D11002C080E0EF
:104E000090E00E94650E73CFC8019370D11002C06C
:104E100080E090E00E948A0E6ACF6D2D802F0E9464
:104E2000C51F65CF812F837009F03FC0D1105FCFC0
:104E3000402F429546954770440F440F802F8F7046
:104E400090E0042E02C0880F991F0A94E2F730E028
:104E500020E004FF09C02FE030E002C0220F331F22
:104E60004A95E2F7209530951695169513701230F5
:104E700099F078F44091D3025091D402113039F076
:104E8000822B932B842395230E94531230CF842BA3
:104E9000952B822B932BF8CF822B932B2091D3022F
:104EA0003091D40282279327EFCF8695DD2011F031
:104EB000812F8170882309F41ACF402F429546959F
:104EC0004770440F440F802F8F7090E0042E02C073
:104ED000880F991F0A94E2F730E020E004FF09C030
:104EE0002FE030E002C0220F331F4A95E2F72095F1
:104EF0003095169516951370123099F078F440910C
:104F0000D5025091D602113039F0822B932B842395
:104F100095230E941012EBCE842B952B822B932B82
:104F2000F8CF822B932B2091D5023091D602822785
:104F30009327EFCF1F70DD2029F0812F0E944312AD
:104F4000802F12CF802F0E941717812F0E941512D9
:104F5000CECE802F92EF891699F1981570F0A0EFC0
:104F60008A16D1F0B1EF8B1691F0DD2009F45BC009
:104F7000B1106FCE812F8F7127C0E3EF8E1639F1FC
:104F8000F4EF8F12F2CF8091D80282FD2EC0812FD4
:104F90008F71DD20D9F218C0DD2069F024E02B15D7
:104FA00008F4A5CE1F7181E090E002C0880F991F20
:104FB0001A95E2F7B8CF35E03B1508F498CEF2CF5A
:104FC000812F8F71D110C2CF0E94431290CE90E0FA
:104FD00080E0DD2009F49DCF1F7181E090E002C0E8
:104FE000880F991F1A95E2F794CFDD2089F01F7181
:104FF000812F0E9443128091D80282FF07C0A8E04F
:105000001A9FC0011124836080933F02812FDCCF5F
:1050100081E00E942712B1E0BB1508F068CE82E063
:105020000E94271264CEBB2059F0893309F0D7CEF5
:10503000EFEFF7EE23E0E150F0402040E1F7CDCE76
:10504000812F8F7183CF85E0F701DE0111960190EA
:105050000D928A95E1F7D70112962C9189819A8158
:105060002111B0CA0E94A711182FB4CA0631BCE79B
:105070001B0751F5809149028A7A91E009F490E08A
:105080009093E60169E2811165E38CED91E00E9465
:105090004B0E0E94901666CC0631ECE71E0709F015
:1050A0006DCD8091E601811144CD89E2EEEDF1E014
:1050B00024EE31E09191891303C0DF0111971C9216
:1050C0002E173F07B9F7E5CF0330FCE71F0709F4B8
:1050D00044CDC0F401303CE7130709F444CD08F097
:1050E0002ACD01151C4709F049CD0E94881CBFEF4D
:1050F000E4E3FCE0B150E040F040E1F700C0000024
:105100000E941F0E0B35ACE71A0709F482CD0C354F
:10511000BCE71B0709F429CD0A351C4709F02ECD41
:1051200081E02ACD1F93CF93DF9380910C02807F83
:1051300009F049C080910902882309F444C0809194
:105140003E02D0910D026091070270910802A09179
:105150000A02B0910B02C62FC72316E0D81799F1A7
:1051600090E0109711F0CF3F19F401968770F6CFB9
:10517000189F9001199F300D1124F901E25FFD4F36
:1051800041814713F2CF40814613EFCF4281411155
:10519000ECCF438154814A1B5B0B483C510528F7F7
:1051A00080910C028F70806180930C02F901ED5E9A
:1051B000FD4F80818F708061808387E092E00E9444
:1051C000C9220E945C11DF91CF911F910895A1E146
:1051D000B0E0EDEEF8E20C94F9338C0185E0F801D3
:1051E000DE011D9601900D928A95E1F7F801E280AB
:1051F00087E0A82E82E0B82E60910A0270910B021F
:105200006115710509F426C19091070240910802C9
:10521000892F84238F3F09F41DC120813181C380F0
:10522000D480F0900902F601E61BF70BFF2009F489
:10523000DCC080910C02582F507FE83CF10508F04B
:105240009FC051116BC0FE2C431314C0921312C0A7
:10525000E11010C08F70806180930C02C5010E9424
:10526000C92280910C02F80185838F2D6196EAE0B6
:105270000C941534C114D10429F0822F83238F3F5D
:1052800009F003C180E0F82FF170DF2E80FF3CC0F1
:1052900080913E0240910D0256E0841315C02D8787
:1052A0003E878D859E850E949A11292F22952F7009
:1052B0002230F0F0243018F59F70F1F0F80195815C
:1052C000907FD1F4D12C1EC090E0589FF001599FDF
:1052D000F00D1124E25FFD4F6181361306C060813D
:1052E000261303C06281E6120FC001968770D5CFE6
:1052F0009F7011F0882331F3805E883018F3C80165
:105300000E94C922FD2CB1CFEE2009F4AECF8091CE
:105310000C02816080930C02F12CA7CF431306C0CE
:10532000921304C0F801EE2009F479C0C8010E946C
:105330005812882309F1EE20F9F080910C02803296
:1053400070F0209107023091080238872F83198668
:10535000DB86CA868C87CE0107960E94C92286E02A
:10536000F801A7E0B2E001900D928A95E1F70E9462
:105370009228FF24F39479CFC8010E94C922F9CF63
:1053800051110AC087E092E00E94C92286E0F5012F
:1053900011928A95E9F7C0CF43130FC092130DC045
:1053A000E1100BC0F8018583C8010E94C92286E084
:1053B000F50111928A95E9F758CFC8010E94581259
:1053C0008823D1F2EE20C1F280910C02803238F2B3
:1053D00020910702309108023A8329831B82DD82E3
:1053E000CC828E83CE010196B8CFE83CF105F8F669
:1053F000FE2CEE2009F243131FC092131DC08091B2
:105400000C0280FD10C0982F907F69F0F801858311
:10541000903F31F0982F907F905F8F70892B85831C
:10542000C8010E94C92286E0F801A7E0B2E001901D
:105430000D928A95E1F719CFC8010E945812811187
:105440008ECF80910C02816080930C02C8010E9473
:10545000C9220BCFEE2009F48FCFC8010E94581249
:10546000F82E882309F488CF86E0F801A7E0B2E09F
:1054700001900D928A95E1F78091070290910802C0
:105480000E949A110E949228F0CE81E08E25FBCED8
:10549000A7E1B0E0EEE4FAE20C9400344B8B5C8BB5
:1054A0006D8B7E8B8F8B6111109248021A8A198A3C
:1054B00085E0FE017396DE011D9601900D928A959E
:1054C000E1F786E0FE013D96DE01179601900D9210
:1054D0008A95E1F7CE0107960E94E728882359F0C4
:1054E00016E080913E0290910D02891343C06796A9
:1054F000E3E00C941C3486E0FE013796DE01119641
:1055000001900D928A95E1F78A859B85892B41F35D
:105510008F81988589238F3F19F320910D0230E008
:10552000C90101968770992740913E0248171906D4
:1055300071F40E94881C10920D0210923E0286E0C7
:10554000E7E0F2E0DF011D928A95E9F7C9CF96E026
:10555000929FD001939FB00D1124A25FBD4FFE0119
:10556000319601900D929A95E1F780930D020E9479
:105570005C11B6CF819FC0011124825F9D4F0E94B4
:10558000E728882309F4B3CF80913E0290E001968A
:105590008770992780933E02A4CFA7E1B0E0E3EDA6
:1055A000FAE20C94F6338E010F5F1F4F8AE0D801A8
:1055B0001D928A95E9F78BEBC82E81E0D82EF12C4D
:1055C000E12CAA24A394B12C26EC822E21E0922E69
:1055D000F60181916F018F3F09F442C0F894E82FE2
:1055E000E295EF70F0E021A18F70A50102C0440F99
:1055F000551F8A95E2F7CA01922F982B91A392A189
:105600008095892382A3789400C0E0ECF1E0712CAE
:1056100031E021912F3F09F46BC0A22FA295AF700A
:10562000B0E090968C9190E02F7002C09595879590
:105630002A95E2F780FD5CC0832F782A330F8E16FF
:105640009F0639F7F601319780818F3F11F00E9454
:10565000490F50EA5A95F1F7F801EE0DFF1D7082DF
:105660008FEFE81AF80AA5E0EA16F10409F0B0CFC6
:105670004AE050E0B80187EC92E00E94AA3400971B
:1056800041F02AE0F801A7ECB2E001900D922A95D2
:10569000E1F70091D202892B69F181E080934D02FC
:1056A0000E94841A90934C0280934B0280914B028B
:1056B00090914C020E94300E059700F110E00552C7
:1056C0001D4F45E050E067EC72E0C8010E94AA342B
:1056D000C12C892B51F085E0E7ECF2E0D801019074
:1056E0000D928A95E1F7CC24C39410924D0207C025
:1056F00080E0A3CF80914D028111D8CFC12C0E94B0
:105700000E14D82EE091D202882309F4A9C07E019C
:10571000BBE0EB0EF11C85E0D7011D928A95E9F7FD
:105720000E2F10E005521D4FB090F002B9E0BB15EE
:1057300008F452C02AE538E143E651E0B701C80158
:105740000E94C713882309F469C023ED38E140E7BC
:1057500051E0B701C8010E94C713882309F45EC055
:1057600023E838E14BE751E0B701C8010E94C713B5
:10577000882309F453C0F9E0FB1508F468C01092BF
:10578000F0028091D10290E045E050E0B7018552EF
:105790009D4F0E94AA3421E020935802892B89F55D
:1057A000D12C00910603109107030115110571F02A
:1057B0000E94841A801B910B883E934038F010920F
:1057C00007031092060383E00E9415128D2D8C2989
:1057D0006796EDE00C94123480914E0290914F0246
:1057E0000E94300E843F914008F0A4CF809158026F
:1057F0008823B1F285E0D7011D928A95E9F71092CE
:105800005802A091D102B0E0A552BD4F85E0FE0143
:105810003B9601900D928A95E1F7C3CF8091F002FB
:105820008F3F31F08F5F8093F0028A3008F4A9CF68
:105830000E94841A90934F0280934E0280914B03F2
:1058400080FFD4CF8CED93E00E94200CCFCF8091CD
:105850004B0380FF94CF89EC93E00E94200C8FCF04
:10586000F0E0E552FD4F85E0ABE5B2E001900D922E
:105870008A95E1F765E070E08BE592E00E94BA0E50
:1058800080935A028090600290906102A090620220
:10589000B09063028091540290915502A0915602FB
:1058A000B091570288169906AA06BB06D1F08092DD
:1058B000540290925502A0925602B09257020E9452
:1058C0000E1481110EC00E943F0E861A970AA80A74
:1058D000B90A8092C3029092C402A092C502B0920B
:1058E000C6020E940E14882309F470CF4091500222
:1058F0005091510260915202709153022FB7F89467
:105900008091440390914503A0914603B0914703D1
:105910002FBF481759076A077B0709F457CF0E9422
:105920003F0E609350027093510280935202909305
:1059300053020E94D1149C0198E0E4E6F2E0DE01FB
:105940001B9601900D929A95E1F789899A890097A3
:1059500029F02817390711F00E94A114FE0173964F
:1059600085E0DF011D928A95E9F74B895C896D8995
:105970007E898F890E94F4142C873D874E875F872C
:10598000688B65E070E0CE010C960E94BA0E8B87A2
:1059900088E0FE013B96A4E6B2E001900D928A9564
:1059A000E1F714CF1F921FB61F9211248F939F937C
:1059B000AF93BF9380912803811113C0809144035A
:1059C00090914503A0914603B09147034196A11DD4
:1059D000B11D8093440390934503A0934603B09375
:1059E0004703BF91AF919F918F911F901FBE1F9052
:1059F0001895CDB7DEB761970FB6F894DEBF0FBE2E
:105A0000CDBF85B7806885BF85B7806885BF84B7FF
:105A1000877F84BF0FB6F894A89580916000886155
:105A200080936000109260000FBE80E890E00FB697
:105A3000F89480936100909361000FBE88E093E139
:105A40009093DB018093DA010E94C20C0E94630DE7
:105A50008091E20084608093E20078948091390321
:105A60008823A1F01091E9001F709091EC00892F1C
:105A7000817090FD80E8182B1092E9008091E80079
:105A800083FD0E94AD1C1F701093E90082E084BD6D
:105A900093E095BD9AEF97BD80936E001092C3027C
:105AA0001092C4021092C5021092C6020E940E14F7
:105AB00091E08927809300010E940E1481110E94B9
:105AC0008F32809100018091000195E0811190E07A
:105AD0009093D20285E0891B8093D1020BEB11E0F9
