:100000000C94B20B0C94CF0B0C94CF0B0C94E72FE9
:100010000C94CF0B0C94CF0B0C94CF0B0C94CF0BF8
:100020000C94CF0B0C94CF0B0C94B2180C94EC1EC8
:100030000C94FE290C94CF0B0C94CF0B0C94CF0B8B
:100040000C94CF0B0C94CF0B0C94CF0B0C94CF0BC8
:100050000C94CF0B0C94E1190C94CF0B0C94CF0B98
:100060000C94CF0B0C94CF0B0C94CF0B0C94CF0BA8
:100070000C94CF0B0C94CF0B0C94CF0B0C94CF0B98
:100080000C94CF0B0C94CF0B0C94CF0B0C94CF0B88
:100090000C94CF0B0C94CF0B0C94CF0B0C94CF0B78
:1000A0000C94CF0B0C94CF0B0C94CF0B0631FF09A3
:1000B00074A1010975150026FF00952075088102BD
:1000C0000976150026FF00952075089102C00501EC
:1000D0000980A101850319012AB700150126B7007F
:1000E000950175108100C0050C0901A10185041955
:1000F000012AA002150126A002950175108100C0F9
:1001000005010902A1010901A10005091901290838
:100110001500250195087501810205010930093195
:100120001581257F95027508810609381581257F7F
:10013000950175088106050C0A38021581257F9501
:100140000175088106C0C005010906A1010507194E
:10015000E029E715002501950875018102950175D3
:100160000881010507190029FF150026FF009506E3
:100170007508810005081901290595057501910289
:10018000950175039101C044454255473A20646981
:100190007361626C65642E0A0044454255473A20FB
:1001A000656E61626C65642E0A004F6E6573686FE0
:1001B000743A206163746976653A2025640A000AFE
:1001C000002530325820006B6579626F6172645F80
:1001D0007265706F72743A200029001E001F0020A3
:1001E00000210022002B0014001A0008001500173F
:1001F00000E10004241621072809220A00E0001D5E
:10020000431B0006001900050000002800E3002A37
:10021000004C00E2002A00270026002500240023CD
:10022000003100130012000C0018001C002F0033D6
:10023000340F310E380D320B0038003800370036DD
:1002400000100011000000280000002C42000026D1
:1002500041007C1E021F02200221022202037C00B8
:100260000000000000000000000000E300E200E0E9
:1002700000E10000000000000000000000037C001E
:100280007C0000010000000000000000002D02279B
:1002900002260225022402230200003000610060D1
:1002A000005F002F00670056005E005D005C005795
:1002B00000630054005B005A005900550000000123
:1002C00000000001000000620045003A003B003CD5
:1002D000003D003E00AB00000000000000000000F8
:1002E00000AE00E500E600E400E7000000AC004AD4
:1002F000004B004E004D0000000000010001000115
:100300000001000100440043004200410040003F62
:1003100000A90000000000000000000000A8004F3D
:10032000005200510050000000AA00000000000030
:1003300000037C007C0000010000000000000000C1
:1003400000000000000000000000000000000000AD
:10035000000000000000000000000000000000009D
:10036000000000000000000000000000000000008D
:100370000000000000067E000000000000000000F9
:10038000000000000000000000000000000000006D
:10039000000000000000000000000000000000005D
:1003A00000067E000000000000B700B6000000005C
:1003B000000000D2000000D100000000000000009A
:1003C000000000000000000000000000000000002D
:1003D000000000000000000000000000000000001D
:1003E00000000000000000000000000000067E0089
:1003F00000000000000000000000000000000000FD
:1004000000000000000000000000000000000000EC
:10041000000000000000000000067E000000000058
:1004200000B700B600000000000000D2000000D1BC
:100430000054617267657420636F6E6E65637465E6
:10044000640D0A0054617267657420646973636F98
:100450006E6E65637465642C207468726F74746C5E
:10046000696E6720636F6E6E656374696F6E20617D
:100470007474656D7074730D0A004661696C65640F
:1004800020746F20657865637574652025730A0094
:100490005B735D000A0025303862003A2000253089
:1004A0003258000A722F63203031323334353637F8
:1004B0000A000A0025303258006C65645F7461736D
:1004C0006B3A2000290A002575002F002575005D74
:1004D00028002564002000256400200025640020F9
:1004E000002564007C0025303258006D6F757365FF
:1004F0006B6579205B62746E7C7820792076206849
:100500005D287265702F61636C293A205B0042BDE3
:100510000401048E966E773EFE7E5F1DB8F2664E35
:10052000FF5D19B0C20469542AD62EBFDD19B0C3CD
:10053000E529B1E023A5A9B1C10082674C1A978DC6
:10054000795120C7068E7C7C7A764FFD5930E24681
:100550000E9EBEDF1D9991A0A5A1A9D022C6EF5C79
:100560001B958990A2A7CCFB5528B3E44AF76C3BB6
:10057000F46A562EDE1F9DB8D3058892A6CE1EBE05
:10058000DF1D99B0E246EF5C07115D980B9D9497D3
:10059000EE4E45336B44C729562730C6A7D5F256D1
:1005A000DFB43862CBA0B6E30F84062405656F760E
:1005B00089B577412782666582CCD5E620D5271795
:1005C000C5F803237C5F64A51DC1D636CB4CD4DBB4
:1005D00066D78BB1997E6F4C364006D6EBD7A2E436
:1005E000F495515A5496D55344D78CE0B94068D20B
:1005F00018E9DD9A239248EE7F43AFEA7738848C7E
:100600000A72AF69F8DDF12483A3F84ABFF59413A9
:10061000DBBBD8B4B3A0FB4550603059123171A296
:10062000D313E7FAE7CE0F63150B6B94BB37832622
:10063000059DFB4692FC0A15D10D7392D68C1B8C3E
:10064000B8558ACEBDFE8EFCED09128391825131E0
:1006500023FBB40C76AD7CD9B44BB26714099C7FF4
:100660000C18BA3BD68E142AE41B529F2B7DE1FB5B
:100670006A3302FAAC5AF23E887EAED1F378E805CE
:10068000D1E3DC21F6E19ABD170ED9469B8803EA37
:10069000F666BE0E1B5049964097F1F1E480A66EB7
:1006A000E87734BF294044C2FF4E98D39CA3322B35
:1006B00076510409E7A9D1A632B12353E247ABD65C
:1006C000F5695C3E5FFAAE4520E5D244FF39326DF4
:1006D000FD27575CFDF0DEC1B599E5F51C77017586
:1006E000C56D5892F2B247000126967A30FFB7F0F6
:1006F000EF77C18A5DDCC0D129301E77387A94F15A
:10070000B87A7EEFA4D1AC314AF25D643DB2E2F03A
:100710000899FC70EE24A77EEE1E20697D44BF87F9
:1007200042DF883B0CDA42C904F94550FC838F1143
:100730006A72BC9995F0AC3DA73BCD1CE288793735
:10074000115F3989950A16847AF68AA428E4ED8324
:10075000803BB123A50310F466EABB0C0FC5EC6C1B
:1007600069C5D324ABD42AB799887608A0A8957C0C
:10077000D8386DCD5902514BF1B52B50E3B6BDD0F1
:1007800072CF9EFD6EBB44C8248A77188A1306EF89
:10079000977DFA81F031E6FA77ED3106315B548AC4
:1007A0009F3068DBE240F84E73FAAB748B1058133D
:1007B000DCD2E678D1322E8A9F2C58064827C5A96C
:1007C0005E8147894621910370A43E889CDA330AF2
:1007D000CEBC8B8ECF9FD3718043CF6BA9518376D4
:1007E0003082C56A853911501A82DC1E1CD57DA95C
:1007F000719933471997B35AB1DFEDA4F2E6268415
:10080000A2289A9EDFA66AF4D6FC2E5B9D1A2A27A0
:1008100068FBC183214B90E036DD5B314255A0136C
:10082000F7D089537199570929C5F321F8372F401B
:10083000F3D4AF16083602FC77C58B049056B9C9BD
:10084000679A99E800D386FF972D08E9B7B391BC62
:10085000DF45C6ED0F8C4C1EE65B6E3830E4AAE334
:1008600095DEB9E49AF5B2559A879BF66AB2F277AB
:100870009A31F47A31D11D04C07C32A29E9AF5627D
:10088000F8278DBF51FFD3DF64373F2A6F763A7D5B
:1008900077069E777F5EEB3251F916669A09F3B0C0
:1008A00008A470964630FFDA4FE91BED8DF8741FEF
:1008B0003192B3731736DB9130D688556B34778716
:1008C0007AE7EE06C61C8C190C4846235E9C075C32
:1008D000BFB47ED64F749CE2C5508BC58B1590601B
:1008E000625729D01343A18088910044C74D1986CF
:1008F000CC2F2A755AFCEB972A70E378D891B04F29
:100900009907A395EA2421D5DE512093270A307355
:10091000A8FF8A97E9A76A8E0DE8F0DFECEAB46CCD
:100920001D392A622D3D5A8B65F890052E7E912C3B
:1009300078EF8E7AC12FAC78EEAF2845064C26AF03
:100940003BA2DBA39306B53CA5D8EE8FAF25CC3FE9
:10095000856848A962CC978F7F2AEAE0150AAD62C4
:1009600007BD45F841D836CB4CDB6EE63AE7DA15E1
:10097000E9291E1210A0142C0E3DF4BF39419275C6
:100980000B257BA3CE399C1564C8FA3DEF7327FE77
:10099000262ECEDA6EFD718EDDFE76EEDC125C0266
:1009A000C53A4E4E4FBFCA4015C76E8D41F110E09B
:1009B0004F7E977F1CAE478E6BB12531B073C71B3E
:1009C0009779F980D366223007741EE4D08021D64F
:1009D000EE6B6C4FBFF5B7D909872FA914BE27D985
:1009E000725001D41373A6A751027525E1B34534A3
:1009F0007DA88EEBF31649CB4F8CA1B9368539759E
:100A00005D0800AEEBF6EAD7133A215A5F30845204
:100A10002695C914F257556BB110C2E1BD3B51C0C8
:100A2000B7554C711226C70DF951A43802057FB88D
:100A3000F1724BBF718914F37738D97124F3001127
:100A4000A1D8D46927083735C9119D901C0EE71C21
:100A5000FF2D1EE892E11810957CE080F49643216A
:100A6000F975216438DD9F1E9516DA561D4F9A538D
:100A7000B2E2E418CB6B1A65EB56C63BE5FED8260E
:100A80003F3A84597266A2F375FFFB60B322AD3F13
:100A90002D6BF9EBEA057CD88F6D2C989E2B93F18A
:100AA0005E46F08749297368D77FF9F0E57DDB1D45
:100AB0007519F3C4589B1788A892E0BEBD8B1D8D95
:100AC0009F5676ADAF29E2D9D552F6B55635573A8D
:100AD000C8E156431994D3049B6D35D80B5F4D196B
:100AE0008EECFA64910A72202BBC1A4AFE8BFDBB75
:100AF000ED1B23EAAD7282A1299971BDF095C10366
:100B0000DD7BC2B23C2854D368A472C86696E0D19B
:100B1000D87FF8D1262BF7ADBA55CA15B932C3E53F
:100B200088978E5CFB92258BBFA245557AA76F8B69
:100B3000575BCF0ECB1DFB208277A88CCC16CE1D29
:100B4000FADECC0B62FECCE1B7F0C381647340A047
:100B5000C24D8911753355338DE84AFDEA6E300B6D
:100B6000D7312CDE47E3BFF85542E27F59E517EF56
:100B700099346991B1238E20872DA8FED58AF384FC
:100B80003AF037E4090054EE674993E48170E3904A
:100B90004DEFFE41B7997BC183BA62126F7DDE6B68
:100BA000AFDA16F95551EEA60C2B02A3FD8DFB30E2
:100BB00017E46FDF3671C4CA872548B047ECEAB442
:100BC000BFA54D9B9F0293C4E3E4E8422D688115C5
:100BD0000AEB845BD6A874FB7D1DCB2CDA462A7603
:100BE00062CEBC5C9E8BE7CFBE78F57CEBB33A9CC3
:100BF000AA6FCC72D159F21123D63F48D1B7CEB0EB
:100C0000BFCBEA80DE57D45E972F75D1508E802CF3
:100C10006679BF724BBD8A816CD3E101DCD21526A7
:100C2000C536DA2C1AC02794EDB79B850B5E8097EA
:100C3000C5EC4FEC885D50073547DC0B3B3DDD6074
:100C4000AFA85D813824255D5C15D1DEB3ABEC0522
:100C500069EF83ED5754B8646411163269DA9F2D39
:100C60007F36BB445A34E87FBF03EB007F596822CC
:100C700079CF736C2C29A7A15F38A11DF02053E018
:100C80001A6314587110AA080C3E161A6022827F4B
:100C9000BAA443A0D0AC1BD56B64B51493319E535A
:100CA00050D05766EE5A4FFB032A695876F183F706
:100CB0004EBA8C4206605D6DCE6088AEA4C3F1036F
:100CC000A54B98A1FF67E1ACA2B862D76FA031B481
:100CD000D277AF211006C69AFF1D09170E5FF1AA41
:100CE00054344B458A8763A6DCF9243067C6B2D6F4
:100CF000613369EE50615728E77EEEEC3A5A734E45
:100D0000A88DE418EAEC4164C8E2E866B62DB6FBAB
:100D10006A6C16B3DD4643B973006A71ED4E9D25CA
:100D20001AC33C4A95159935811402D6989BECD884
:100D3000233B8429AF0C9983A69A344FFAE8D03C20
:100D40004BD0FBB668B89E8FCDF7602D7A22E57D3B
:100D5000AB651B95A7A87FB677477B5F8B1272D0D8
:100D6000D491EFDE19503CA78BC4A9B323CB76E610
:100D700081F0C1048FA3B8545B97AC19FF3F55278E
:100D80002FE01D429B57FC4B4E0FCE98A9435703B3
:100D9000BDE7C894DF6E367332B4EF2E857A6EFCF1
:100DA0006C188275359007F3E49F3EDC68F3B5F369
:100DB0001980920699A2E86FFF2E7FAE42A45FFBD6
:100DC000D40E812BC304FF2BB3744E365B9C1500ED
:100DD000C6472BE88B3DF19C039A587F9B9CBF85AF
:100DE0004979352E567B411439478326AA078998BD
:100DF000111B86E7737AD87D786153E979F5368DD2
:100E0000449284F91350583BA46A3665498E3C0ECF
:100E1000F16FD284C47E8E3F39AE7C84F163378E0D
:100E20003CCC3E448145F14BB9ED6B365DBB206057
:100E30001A0FA3AA55773AA9AE374DBAB8866BBC3C
:100E40000850F6CCA4BD1D4072A586FAE210AE3D56
:100E5000584B97F34374A99EEB21B701A48693974F
:100E6000EE2F4F3B86A1416F412690785C7F303852
:100E70004B3FAAECED5C6F0EAD4387FD9335E60169
:100E8000EF412690999EFB195BADD2918AE046AF67
:100E900065FA4F84C1A12DCF458BD38550557CF980
:100EA0006788D44EE9D76B6154A1A4A6A2C2BF3013
:100EB0009C409F5FD7692B24825ED9D6A712541A13
:100EC000F7559F7650A99584E66B6DB59654D6CDAF
:100ED000B3A19B46A7944DC494B498E3E1E234D502
:100EE00033160754CDB77753DB4F4D469DE9D49C5D
:100EF0008A36B6B838266C0EFF9C1B438B80CCB963
:100F00003DDAC7F18AF26DB8D7742F7E1EB7D34A87
:100F1000B4ACFC79486CBC96B69446572DB0A3FC93
:100F20001EB95260852D41D043011E1CD57DFCF3B6
:100F3000960DC7CB2A299A93DD882D375DAAFB49E8
:100F400068A09C50867F685657F9791839D4E0011B
:100F5000843361CAA5D2D6E4C98A4A23444EBCF080
:100F6000DC24A1A0C4E2073C10C4B5254B6563F4A2
:100F700080E7CF61B1718221872CF59100320CECB2
:100F8000A9B59A7485E3368F764F9C6DCEBCAD0AB9
:100F90004BED7604CBC3B9339E019396697DC5A210
:100FA00045799B045C8409ED8843C7AB931426A163
:100FB00040B5CE4EBF2A42853E2C3B54E8121F0E50
:100FC0009759B22789FAF2DF8E6859DC06BCB685DC
:100FD0000D0622ECB1CBE504E63DB3B04173083F0A
:100FE0003C588663EB50EE1D2C3774A9D318A347E9
:100FF0006E9354AD0A5DB82A555D78F6EEBE8E3C10
:101000007669B940C234EC2AB9ED7E20E48D00380F
:10101000C7E68F44A886CEEB2AE990F14CDF32FB7D
:10102000731B6D921E95FEB4DB65DF4D235489481A
:10103000BF4A2E70D6D762B43329B13A334C236DF0
:10104000A676A5216348E6905DED90950B7A84BE67
:10105000B80D5E630C62264C145AB3AC23A474A77B
:101060006F333005600142A028B7EE1938F1648073
:101070008243E141271F1F90547AD5232ED13DCBC7
:1010800028BA587FDC7C9124E92851836EC556210B
:1010900042EDA05622A140806BA8F794CA136B0CB6
:1010A00039D9FDE9F36FA69EFC708AB3BC593C1E8A
:1010B0001D6CF97CAFF9887195EB5700BD9F8C4F83
:1010C000E12483C522EAFDD30CE217187C6A4CDECA
:1010D00077B4539B4C81CD2360AA0E25739C027973
:1010E0003230DF74DF7519F4A5145CF77AA8A59186
:1010F000847C6003063BCD50B6279CFEB1DDCCD38B
:10110000B05924B2CAE21C81229D078F8EB9BE4E0F
:10111000FAFC3965BABF9D12375E977EF389F55D9B
:10112000F5E3098C62B5209D0C538A681BD28F753C
:10113000175DD4E5DA756219146A262DEBF8AF371E
:10114000F06CA455B1BCE233C09ACAB011494F68E3
:101150009B3B6B3CCC13F6C785616842AEBBDDCDD3
:101160004516291DEADBC803943CEE4F8211C3ECFF
:1011700028BD970599DED7BB5E221FD4EB64D992B8
:10118000D985B76A056AE42441F1CDF0D83FF89ECD
:101190000ECD0B7A706B5A750A6A3388EC17750896
:1011A00070102F24CFC4E942006194CA1F3A76061A
:1011B000FAD24881F077600345D961F4A46F3DD934
:1011C00030C3046B542AB7EC3BF44BF5685226CE7F
:1011D000FF5D1991A0A3A5A9B1E023C40A774DF939
:1011E0005120A3A5A9B1C10082868E7F5D1991A06F
:1011F000A3C4EB540B756852078C9A978D79706273
:1012000046EF5C1B95897141E121A1A1A1C0026754
:101210004C1AB6CFFD785324ABB5C9F16023A5C8ED
:1012200012876D5813858892876D5832C70C9A972C
:10123000ACDA36EE5E3EDF1DB8F2662FBDF87247BF
:10124000ED5813858892878C7B550990A2C6EF3D97
:10125000F85324ABD42AB7EC5A36EE5E3EDF3CFAA4
:10126000764FFD5930E246EF3DF853056931C10034
:1012700082868E7F5D19B0E227CCFB744B148B9471
:101280008B756833C50892878C9AB6CF1CBAD70D78
:1012900098B2E62FDC1B9589716023C40A968F9C57
:1012A000BAF66E3FFC5B15A8D226AFBDF872662F6A
:1012B000DC1BB4CB148B94AAB7CDF9510180828684
:1012C0006F3DD930E227CCFB744B14AAB7CDF9702F
:1012D00043046B35C9F16023A5C8F3450892876DB7
:1012E0005832E62FBDF872664E1EBEFE7E7E7E5FD1
:1012F0001D9991A0A3C40A774D1893A4ABD40B7584
:101300004910A2C6EF3DF85324ABB5E833E44A16C2
:10131000AEDE1FBCDB15A8B3C5087345E931C1E1DA
:1013200021A1A1A1C002866F5C3AD70D9893A4CAEF
:1013300016AEDE1F9D99B0E246EF3DF872470C9A5B
:10134000B6CFFD5911A0A3A5C8F3450892876D3902
:10135000F043048A96AEDE3EDF1D9991A0C2066F6F
:101360003DF872470C9A978D989385887345E931BB
:10137000E023A5A9D003848A96AEDE1FBCDB15A8A6
:10138000D226CEFF5D1991818082672DD813A4AB40
:10139000D40B94AAB7CDF95120A3A5C8F345E950C1
:1013A00022C6EF5C3AD70D9893858873644AF74D4F
:1013B000F95120A3C40A96AEDE3EFE7E7E7E5F3CDF
:1013C000FA764FFD7872662FBDD930C3E548128793
:1013D0008C7B5528D2078C9A97ACDA178D795120DF
:1013E000A3C4EB540B948B94AAD62EBFFC5B15A818
:1013F000D226AFDC1BB4EA37EC3BF46A37CD189346
:10140000856931C1E140E325C812878C9AB6CFFDCA
:101410005911A0C2068E7F5D38F2470C7B746A3783
:10142000EC5A36EE3FFC7A764F1C9B958971410051
:101430006344EB542AD60F9CBAD70D989385693133
:10144000C10082868E9EBEDF3CFA572CDA36EE3F14
:10145000FC5B158971410082868E7F5D38F247ED15
:101460005813A4CAF74DF95101806344EB542AD6AE
:101470002EBFDD1991A0A3A5A9B1E042068E7F5D24
:101480001991A0A3C40A968F7D7872470C7B746A69
:10149000562EDE1FBCFA570D7951016121A1C0E320
:1014A00025A9B1C1E14002674C1A978D9893A4AB6E
:1014B000D42AD60F9C9BB4CB14AAB7CDF95120A344
:1014C000C4EB35C9F16042068E7F7C7A766E3FFCB4
:1014D0007A766E5E3EFE7E5F3CDB15897141E121CE
:1014E000C0E344EB542AB7CDF9706227ADD832C7B8
:1014F0000C7B744B14AAB7EC3BD528D2076D39D1BD
:1015000020C2E74C1A978D98B2C70C5928F39B500C
:101510004D573333585820282564293A206669727C
:101520006D77617265207369676E6174757265208D
:10153000766572696669636174696F6E2066616958
:101540006C6564210A00504D5733335858202825C4
:1015500064293A206669726D776172652075706CD6
:101560006F6164206661696C6564210A00504D57A3
:101570003333585820282564293A206D6F74696FD9
:101580006E3A20307825782064783A2025692064E6
:10159000793A2025690A00504D573333585820288E
:1015A0002564293A2062757273740A0050574D33CE
:1015B000333630202830293A207374617274696E92
:1015C00067206D6F74696F6E0A005B435D005B445A
:1015D0005D005B535D005B575D005B525D0009027F
:1015E0007400040100A0FA090400000103010100D5
:1015F00009211101000122400007058103080001B3
:101600000904010001030102000921110100012266
:1016100047000705820308000109040200010300D6
:101620000000092111010001223200070583032077
:101630000001090403000203000000092111010058
:10164000012222000705840320000107050403206E
:1016500000011201000200000008F8A8331800027F
:10166000010200013003430068006100720079004C
:1016700062006400690073002000280034007800D4
:1016800036002900200045006C00690074006500E8
:101690002D00430000002403420061007300740029
:1016A00061007200640020004B0065007900620058
:1016B0006F006100720064007300000004030904FD
:1016C00028636861727962646973292070726F633C
:1016D0006573735F7265636F72645F6B623A2063F8
:1016E0006F6E666967203D207B0A09726177203D35
:1016F00020307825582C0A097B0A090969735F6430
:101700007261677363726F6C6C5F656E61626C654A
:10171000643D25750A090969735F736E6970696EA6
:10172000675F656E61626C65643D25750A090964D1
:10173000656661756C745F6470693D30782558200A
:10174000282575290A0909736E6970696E675F64D7
:1017500070693D3078255820282575290A097D0AA9
:101760007D0A000011241FBECFEFDAE0DEBFCDBF3F
:1017700011E0A0E0B1E0E6E3F4E602C005900D92CE
:10178000AA3DB107D9F723E0AAEDB1E001C01D924F
:10179000A934B207E1F70E94252A0C94D2310C94A7
:1017A0000000FF93EF93E091DA01F091DB013097B5
:1017B00009F00995EF91FF910895FC018591803022
:1017C00011F0EFDFFBCF0895FF27E0E230E247FFA3
:1017D0000CC0419597FF09C0EDE26095709580952A
:1017E0009095611D711D811D911D27FF02C02195DE
:1017F00030E350E2AA27660F771F881F991FAA1FA0
:10180000A41710F0A41B63955A95A9F7AA3008F005
:10181000A95FA05DAF93F3956115710581059105F1
:1018200041F7ED3211F4EF93F395F21718F43F936B
:10183000F395FBCF8F91B5DFFA95E1F70895E99124
:10184000F9918591803021F0853219F0AADFF9CF26
:10185000089520E0E89455915532C1F3503311F4C6
:10186000689455915A3348F4505390F3220F022E46
:10187000220F220F200D250FF4CF0EF42195899110
:101880009991533619F3533729F1533559F1BC0166
:1018900088279927E8945C3621F489919991689476
:1018A0005591543639F446EF7EF077FF0DC08FEF37
:1018B0009FEF0AC055374AE039F0583540E121F032
:1018C000523642E009F00895FF93EF937DDFEF91E8
:1018D000FF91B7CFFF93EF93FC0181918030B9F373
:1018E00060DFFBCFFF93EF9368DFF1CFDF93CF9300
:1018F000CDB7DEB72596A3DFCF91DF910895E8ED50
:10190000F0E080818E7F80831092E2001092DA00F6
:101910001092E100A0EEB0E08C9181608C93808108
:101920008F77808319BCA7EDB0E08C918E7F8C936C
:1019300080818F7E80831092260308952091E40099
:101940003091E50095E6A9012091EC00822F81708D
:1019500020FF06C08091E80080FF06C080E0089567
:101960002091E80022FD1AC080913303882389F07A
:10197000853089F08091EB0085FD0FC02091E40057
:101980003091E50042175307F9F29150E1F684E0F7
:10199000089582E0089583E0089581E0089580919C
:1019A000350387FF13C08091E80082FF06C0809155
:1019B000E8008B778093E80004C0809133038111A5
:1019C000F2CF0895809133038823D9F38091E80002
:1019D00080FFF8CF8091E8008E77ECCF982F90931E
:1019E000E900242F762F50E0891731F07091EC0038
:1019F0002091ED005091F00021FD07C09F5F9730CE
:101A000071F78093E90081E008953091EB003E7F0B
:101A10003093EB003091ED003D7F3093ED0030913D
:101A2000EB0031603093EB007093EC002093ED00FD
:101A30005093F0002091EE0027FDE0CF80E0089564
:101A4000B0E0A0E0E6E2FDE00C940D31C8EDD0E09E
:101A500088818F7E8883E7EDF0E0808181608083DC
:101A600084E082BF81E08093260388818E7F888313
:101A700002EE10E0F80110821092DA0081EEC82E1A
:101A8000D12CF601108288818F77888388818068C5
:101A9000888388818F7D888319BC109233031092CC
:101AA0003403109232031092310390EEE92EF12CA0
:101AB000F70180818B7F808388818160888342E009
:101AC00060E080E00E94EE0CF60180818E7F8083D2
:101AD000F801808181608083808188608083F70144
:101AE00080818E7F8083888180618883CDB7DEB7D7
:101AF000E8E00C942931FC0180913B0390913C0378
:101B000086179707A0F06115710529F49091E800F8
:101B10009E779093E80090E06115710551F4911162
:101B200008C08091E80082FF34C080E00895BC01C5
:101B3000F2CF809133038823C1F18530C1F18091C8
:101B4000E80083FD30C08091E80082FDEACF8091FB
:101B5000E80080FFE1CF8091F3002091F200382F60
:101B60006115710519F02830310558F091E02830E1
:101B7000310509F090E02091E8002E772093E800ED
:101B8000CBCF81918093F100615071092F5F3F4F5E
:101B9000E7CF80913303882341F0853041F0809175
:101BA000E80083FFBECF81E0089582E0089583E0DE
:101BB000089580912803089587E797E79093010897
:101BC0008093000888E19AE00FB6F894A895809376
:101BD00060000FBE90936000FFCF9C014FB7F89458
:101BE00080913E0390913F03A0914003B091410347
:101BF0004FBF821B930B08952FB7F89460913E035B
:101C000070913F0380914003909141032FBF08954D
:101C10009C01FC0132969FEF80E04191461751F004
:101C20009F3F19F4411101C0982F8F5F8630A9F7AB
:101C30009F3F09F40895290F311D97FD3A95F90149
:101C400062830895A3E0B0E0E8E2FEE00C94133173
:101C5000209120033091210328173907A1F0909398
:101C6000210380932003E0911E03F0911F0330971E
:101C700051F024E029839B838A830680F781E02D3D
:101C8000CE01019609952396E2E00C942F31A3E052
:101C9000B0E0EDE4FEE00C94133120911C03309190
:101CA0001D0328173907A1F090931D0380931C038F
:101CB000E0911E03F0911F03309751F023E0298338
:101CC0009B838A830680F781E02DCE0101960995DA
:101CD0002396E2E00C942F31E0911E03F0911F0354
:101CE000309721F00480F581E02D09950895FC01DD
:101CF000680F791F8FEF91E32191822728E030E070
:101D000087FF09C0880F892721503109C9F7E617D5
:101D1000F70791F70895880FF7CF8091F50280FDBE
:101D200016C081FD16C082FD16C08091F402882382
:101D3000A1F0803580F428E0829FC001112460E585
:101D400070E00E945A31862F672B39F0089582E0A7
:101D5000089584E0089588E0089581E008958091D1
:101D6000F50280FD16C081FD16C082FD18C080916D
:101D7000F602882391F08C3390F423E2829FC00115
:101D800011246CE370E00E945A31862F672B49F0D2
:101D9000089588E0089581E1089585E0089583E23B
:101DA000089581E00895813021F4FB0180818093C2
:101DB0004603089563E070E08BE692E00E94770EA0
:101DC00090916A02891318C0E0916B02EB30A4F481
:101DD00088E0E802F0011124E75FFE4F0680F781FA
:101DE000E02D309749F02EE832E040916D026EE62A
:101DF00072E080916C0209950895E8E5F2E084892B
:101E0000809341018589809354010895F894E82FC7
:101E1000E295EF70F0E031A1282F2F7081E090E083
:101E200001C0880F2A95EAF7982F9095932391A3E4
:101E300092A1892B82A3789408959091D50292FF64
:101E400006C0282F28712830F9F4877F846093FF1B
:101E500006C0282F28712831F1F4877E84612091F3
:101E6000D60220FF06C0382F38713830D9F4877F6A
:101E7000816021FF06C0282F28712831D1F4877E88
:101E8000816194FD877E0895282F24712430F9F60E
:101E90008B7F8860DCCF282F2471243101F78B7E63
:101EA0008861DDCF382F3171313019F78E7F88602E
:101EB000E0CF282F2171213121F78E7E8861E1CF7B
:101EC000972F7A30B8F46630A8F4853098F470E033
:101ED00026E0929F600D711D1124FB019CE3899FF8
:101EE000E00DF11D1124EE0FFF1FE752FE4F85910B
:101EF0009491089580E090E00895CF93DF93EC01F2
:101F000082389105B9F108F041C08133910509F497
:101F10009FC050F58932910509F48FC08A9709F462
:101F20009EC0C11520E5D20708F0BDC0C11530E440
:101F3000D30708F00AC1C03ED10508F0A5C0CD3CCA
:101F4000D10508F000C1C83AD10508F08FC0C53AE4
:101F5000D10508F0F0C0C130D10539F1209729F141
:101F6000C430D10510F546C08533910509F460C031
:101F7000C997B9F68091D502837009F044C1809168
:101F8000D60283FF12C0C9E2D0E00FC0833E9105A4
:101F9000A1F178F4803E910509F1823E910509F0A6
:101FA000C0CF8091D50282FD21C0CE01DF91CF91BB
:101FB0000895863E910561F1873E910571F1843E59
:101FC000910509F0AECF8091D60281FFEECF8091CE
:101FD000D502C7EED0E084FD0DC0E7CF8091D502D9
:101FE00080FD33C09091D60290FFDFCFC3EED0E0EA
:101FF00084FFDBCFD0E0C0E0D8CF8091D50282FD56
:10200000FFC09091D60290FDFEC084FFCECFF2CFEC
:102010008091D50283FDDDCFC8CF8091D50283FDAD
:10202000F5C09091D60291FFF0CFC4EED0E0BDCFC5
:102030008091D50285FFB9CFA6CF8091D50285FDCD
:10204000E8C08091D60283FFB0CFC9E3D0E0ADCF26
:102050008091D50286FFA9CFCAE2D0E0A6CF8091B9
:10206000D50286FFA2CFC1E3D0E09FCFC13CD1050E
:1020700008F6C85AD0E0CC0FDD1FC957DE4F0990D3
:10208000D881C02DD46491CFC11540E2D40708F0A7
:10209000AAC0C11581E0D80708F087CFC83ED10596
:1020A00008F483CFA7CFC03622E5D20718F5C03495
:1020B00032E5D30708F053C0C03242E5D40708F038
:1020C00047C0C11582E5D80708F47FC02C2F26959C
:1020D000269540E2249F900111248C2F8370C1E04B
:1020E000D0E002C0CC0FDD1F8A95E2F7C22BD32BC4
:1020F000DD685BCFC03A22E5D20760F4C03832E534
:10210000D30708F441C0CF71D0E0DC2FCC27C46FD7
:10211000D06A4BCFC03C42E5D40708F44AC0C03E69
:1021200082E5D80708F066CFDC2FCC27CC27DF71FB
:10213000C06FD06A3ACFC55AD0E0CC57DE4FC881C5
:10214000D0E0D06432CFD06530CFDF70D06A2DCFF1
:10215000CF71D0E0DC2FCC27C16FD06A26CF2C2FD7
:1021600026952695277080E2289F900111248C2FB8
:102170008370C1E0D0E002C0CC0FDD1F8A95E2F78A
:10218000C22BD32BDC6811CF2C2F269526952770D8
:1021900040E2249F900111248C2F8370C1E0D0E095
:1021A00002C0CC0FDD1F8A95E2F7C22BD32BDA6871
:1021B000FCCE8C2F8F710E941D0FC82FD0E0DC2F1A
:1021C000CC27CC27DF71D062F0CE8C2F8F710E948C
:1021D0001D0F35E0D695C7953A95E1F7CF709C2F46
:1021E000EC01D069E2CE8D2F8F710E941D0F90E01F
:1021F000982F882788279F719C012C2BE901E3CF1A
:10220000C2EED0E0D2CEC0EED0E0CFCEC6EED0E06F
:10221000CCCEC5E3D0E0C9CE8091480281111092A6
:102220004802089580959091470298239093470221
:10223000089580913C0290910B02981301C008957B
:102240008F5F8770FACFB0E0A0E0E9E2F1E10C9493
:102250000C317C010091D3021091D4028091D10203
:102260009091D202082B192BCFE0D0E0CC24C3945C
:10227000D12CBC2EC6010C2E02C0880F991F0A94C7
:10228000E2F780239123892B49F4219790F7B12C11
:102290008B2DCDB7DEB7E9E00C942831B7018C2F38
:1022A0000E94600F0E947D0F019779F3F1CFCF93C9
:1022B000DF93EC010E942311BE010E94600F0E9477
:1022C0007D0FDF91CF9108959A3078F5863068F5CB
:1022D000E82FF0E086E0989FE00DF11D11249E2F7D
:1022E000977083E0F695E7958A95E1F7EE0FFF1F6B
:1022F000EE0FFF1FEB51FE4F50E040E080E02191D8
:1023000030E0092E02C0369527950A94E2F7217035
:102310003327042E01C0220F0A94EAF7822B4F5F65
:102320005F4F4430510559F7089580E008959A3081
:1023300098F5863088F5E82FF0E086E0989FE00D6C
:10234000F11D11248E2F877041E001C0440F8A9542
:10235000EAF783E0F695E7958A95E1F7EE0FFF1F20
:10236000EE0FFF1FEB51FE4F30E020E070E0519187
:10237000DF011197CB01022E02C0969587950A9432
:10238000E2F7817081958527842385278C932F5FC1
:102390003F4F2430310559F708959093D40280932C
:1023A000D302089521E030E002C0220F331F8A9546
:1023B000E2F7209530958091D3029091D402822348
:1023C00093230E94CD11089590913D028095892319
:1023D00080933D02282F277091F4282F082E000C9F
:1023E000330B9217130659F09091D60292FF07C053
:1023F0008595859585950E94D21110923D0208958C
:1024000021E030E002C0220F331F8A95E2F780916D
:10241000D3029091D402822B932B0E94CD11089568
:102420009093D2028093D1020895FC01838194811C
:10243000892B29F08081918189238F3F51F480E09D
:102440000895843FE1F717C0883EA8F0813FB9F7AF
:1024500012C0808191810E94571192959F70963091
:1024600099F358F4925F9F70923048F7803F19F0CB
:1024700040F7883E20F781E008959A5FF4CF829577
:1024800090E09C01220F331F220F331F2C7C959567
:102490008795959587958373282B30E0C901880F20
:1024A000991F8A7A359527952575822B08959091E5
:1024B000480280914702892B0E941D0F982F92722B
:1024C00081E009F480E008958091450380FF3AC0DF
:1024D00080914603982F929593708F7044E6949F55
:1024E0009001112428533F4F3F932F931F929F93A6
:1024F00098EC899F9001112420573E4F3F932F93D2
:102500001F928F938091460387FB882780F91F9243
:102510008F938091460386FB882780F91F928F93C3
:10252000809146031F928F9380EC96E19F938F9347
:102530000E94760C8DB79EB740960FB6F8949EBF5A
:102540000FBE8DBF08959FB7F894109224039FBFCC
:1025500090913303943009F048C02091E9002F7026
:102560003091EC00932F917030FD90E8922B24E095
:102570002093E9002091EB0020FF34C02091EE0071
:1025800027FF30C020912303222321F02091E8006F
:1025900025FF28C01092230326E03091E80035FF84
:1025A00014C08093F1008091E80085FD27C08091E0
:1025B000E80080FFFCCF8091E8008E778093E800F0
:1025C0009F709093E90080E0089530913303343098
:1025D00049F43091EB0035FD05C0215041F481E014
:1025E000809323039F709093E9008FEF0895EFE9A4
:1025F000FFE03197F1F700C00000CFCF8FB7F8941C
:1026000021E0209324038FBFDBCF0F931F93CF9341
:10261000DF938B01EA0190913303943061F580934D
:10262000E9008FEF9091E800815095FD06C095ED8F
:102630009A95F1F700008111F5CF8091E80085FFB0
:102640001AC00E949E0C811111C08091E80085FD86
:1026500006C08091E8008E778093E800F2CFF80101
:1026600081918F018093F100219779F78091E800A3
:102670008E778093E800DF91CF911F910F9108959D
:1026800043E050E0BC0183E00E940513089545E05B
:1026900050E0BC0182E00E9405130895CF93DF93C0
:1026A000EC0148E050E0BC0181E00E94051388E0A5
:1026B000FE01A9E2B3E001900D928A95E1F7DF9166
:1026C000CF910895B0E0A0E0E8E6F3E10C94083182
:1026D0007C015B01842E752E69018091EE0201E080
:1026E00010E08A3010F40AE010E0C1E0D0E0B5015B
:1026F000C701F6010995982E811114C021960C1777
:102700001D07B4F48091450380FF0CC07F928F9227
:102710008AE794E09F938F930E94760C0F900F901E
:102720000F900F90892DCDB7DEB7EDE00C942431DA
:10273000CC9F9001CD9F300D300D112490E080E0B2
:1027400045E34A95F1F70000019628173907C1F7CC
:10275000CECF80915702811119C088EC90E0209172
:10276000E30027FD10C0EFE3FCE93197F1F700C06B
:1027700000000197A1F782E0809357020E947F0C2E
:102780001092330303C081E08093570281E090915F
:102790005702913011F080E0089508950E94A91326
:1027A000882359F0E0911E03F0911F03309729F020
:1027B0000190F081E02D0995089580E00895CF9370
:1027C000DF93EC010E94A913882331F0CE010E940F
:1027D0005114DF91CF910895D0931A03C093190338
:1027E000F8CF8091460386FF05C084E690E00E9402
:1027F000DF13089587FF09C08295837024E6829FC6
:10280000C001112488539F4FF2CF8F7028EC829F14
:10281000C001112480579E4FEACFCF9328E030E0CB
:1028200043E060E086E30E94452EC82F811105C079
:102830000E941D2F8C2FCF91089585E08A95F1F786
:102840000000F8CFA2E0B0E0E8E2F4E10C9410312F
:10285000182FF62E0E940D14082F811106C000E0DB
:10286000802F2296E5E00C942C31103511F0109257
:102870003D0310681983FA8262E070E0CE01019690
:102880000E94ED2E892B59F78AEB8A95F1F700C04B
:102890000E941D2F83E492E00197F1F700C0000031
:1028A000DFCF64E670E00E944631615071096837FD
:1028B000710510F067E770E08FE00E942214089520
:1028C000CF93C82F0E940D148823C9F08C2F0E942B
:1028D000BD2E8FE792E00197F1F700C000000E9443
:1028E000D52EC82F95E09A95F1F700000E941D2F74
:1028F00085E68A95F1F700008C2FCF910895C0E00E
:10290000FBCF8FE00E9460148F5F24E6829FC0019E
:1029100011240895A6E1B0E0E0E9F4E10C940F3150
:102920004A8B052F5B8B162F6C8B7D8B8E8B7E01DC
:1029300087E0E80EF11C86E0F70111928A95E9F72D
:1029400080913D03811145C08091450380FF0CC0FB
:102950001F921F9287E995E19F938F930E94760CB7
:102960000F900F900F900F9060E080E50E9422146E
:1029700081112CC086E0FE013796DE011196019090
:102980000D928A95E1F786E0FE013196DE011796F9
:1029900001900D928A95E1F78F8183FF5CC00B8BCC
:1029A0001C8B85E0FE017296DE011D9601900D9252
:1029B0008A95E1F72D853E854F855889698970E0B4
:1029C00080E090E06696E6E00C942B3181E0809305
:1029D0003D030E940D14882369F280E50E94BD2EFC
:1029E000FAEBFA95F1F700C066E070E0C7010E94CB
:1029F000052F8F81877011F010923D030E941D2FCB
:102A00008091450380FF18C08C858F938B858F93B1
:102A10008A858F9389858F938F811F928F931F92C1
:102A20001F928DE695E19F938F930E94760C0FB6CF
:102A3000F894DEBF0FBECDBF89859A8591958195AB
:102A400091099A8789878B859C85919581959109B4
:102A50009C878B878FCF898187FD03C010921B03D2
:102A60009ECFEB80FC800D811E8180911B03811124
:102A70000FC081E080931B038091450380FF08C055
:102A80008CEA95E19F938F930E94760C0F900F90A4
:102A900020E890E8E9169FEFF90634F09701203816
:102AA000310514F02FE730E080E80038EFEF1E0723
:102AB00034F0C8010038110514F08FE790E02B8B3B
:102AC0008C8B6FCFA3E0B0E0E8E6F5E10C940F311A
:102AD0000E943D2E0E940D14882309F499C025ED13
:102AE0002A95F1F700000E941D2F85ED8A95F1F7D8
:102AF00000006AE58AE30E942214882309F488C052
:102B00009FEFE0E7F2E09150E040F040E1F700C0D5
:102B1000000082E00E94601483E00E94601484E060
:102B20000E94601485E00E94601486E00E94601498
:102B30006DE183E10E942214882309F46DC08FE3C4
:102B40009CE90197F1F700C0000068E183E10E9471
:102B500022140E940D14882309F45EC082EE0E94A4
:102B6000BD2E90E59A95F1F701E115E08FE0E82E92
:102B700085E1F82EF80184910E94BD2EF0E5FA95CA
:102B8000F1F70F5F1F4FE016F106A1F78FE193E019
:102B90000197F1F700C000008AE20E94601460E033
:102BA00080E10E9422140E941D2FEFE3FCE931977F
:102BB000F1F700C000006FE08FE00E9422148FE95F
:102BC0009FE00197F1F700C0000060E080E10E9403
:102BD000221467EE81E10E94221462E083E60E94E3
:102BE000221480E00E94601489838FE30E946014A5
:102BF0008A838AE20E9460148B8343E050E0BE0126
:102C00006F5F7F4F8EE095E00E94BC31892BA9F465
:102C10002396E6E00C942B318091450380FFF8CF9A
:102C20001F921F9286E495E19F938F930E94760CEA
:102C30000F900F900F900F90EBCF8091450380FF86
:102C4000E7CF1F921F928FE095E1EECF0F931F9376
:102C5000CF93DF938091470290914602892B809316
:102C6000DC0190914802992391F0892B8093DC013B
:102C700020E08EED91E0FC013191CF0131112F5F09
:102C8000F1E0843E9F07B9F721110E940C1148E042
:102C900050E06EE372E08CED91E00E94BC31892B34
:102CA00009F441C088E0ECEDF1E0AEE3B2E0019060
:102CB0000D928A95E1F7E0911E03F0911F03309782
:102CC00091F10280F381E02D8CED91E009958091E6
:102CD000450382FF28C080FF04C087EC91E00E947A
:102CE000DD0BD0E0C0E001EC11E08091450380FFF6
:102CF0000EC0FE01E452FE4F80811F928F931F93FE
:102D00000F930E94760C0F900F900F900F902196CA
:102D1000C830D10551F78091450380FF04C08FEB87
:102D200091E00E94DD0BDF91CF911F910F910895EB
:102D3000882321F00E9412110E94261608958823EC
:102D400039F090914702982B909347020E942616E3
:102D5000089545E050E06BEF72E080E193E00E945F
:102D6000BC31892B21F080E193E00E946C0E9091A0
:102D7000100385E0E0E1F3E0DF01282F1D922A95A2
:102D8000E9F790931003ABEFB2E001900D928A95B2
:102D9000E1F70895CF93C82F8091D60282FB99273F
:102DA00090F99C17F9F0C0FB82F98093D6026091EC
:102DB000D5027091D60284E090E00E94A63182E0B4
:102DC0000E94E4118091450380FF0CC01F92CF93B5
:102DD0008AEA91E09F938F930E94760C0F900F9058
:102DE0000F900F90CF910895909146039F7081119D
:102DF00015C08FEF980F9F7080914603807F982BAE
:102E0000909346030E94F1134091460350E070E016
:102E100060E08FE090E00E949A31089581E0EACF6F
:102E20009091460392959370811117C08FEF980F80
:102E300093709295907F809146038F7C982B90930E
:102E400046030E94F1134091460350E070E060E0B9
:102E50008FE090E00E949A31089581E0E8CFB0E0E1
:102E6000A0E0E5E3F7E10C940E317901C82F880F5B
:102E7000DD0B41155105A9F0FE0193E0EE0FFF1F98
:102E80009A95E1F7E75FFE4F81819281885A9D4FC5
:102E9000208130E04217530708F49A01A9010E94EB
:102EA000C931CE010E948D30D82E8823D1F0011572
:102EB0001105B9F083E0CC0FDD1F8A95E1F7FE0123
:102EC000E75FFE4F438150E00417150708F4A8019F
:102ED000C75FDE4F6C817D81685A7D4FC7010E94BC
:102EE000C9318D2DCDB7DEB7E7E00C942A31A1E0D2
:102EF000B0E0EDE7F7E10C940A31962E5A01690132
:102F0000780101E010E09E012F5F3F4F50E040E06C
:102F100070E060E00E942F17182F882309F443C047
:102F2000F50140815181628173812FB7F8948091BE
:102F30003E0390913F03A0914003B09141032FBF06
:102F4000841B950BA60BB70B84369105A105B10523
:102F500040F465E070E0C7010E94770E99818917FF
:102F600011F105E010E0960150E040E070E060E013
:102F7000892D0E942F17D82E65E070E0C7010E94AE
:102F8000770E11E09981981310E01D2139F00E940D
:102F9000FC0DF5016083718382839383812F2196D9
:102FA000EBE00C94263185E0F701D60101900D92FB
:102FB0008A95E1F7F3CFA5E0B0E0E1EEF7E10C94FC
:102FC0000F317B0109E512E09E012F5F3F4F43EB7C
:102FD00052E061E080E00E947717882349F095E095
:102FE000FE013196AEEAB2E001900D929A95E1F7BA
:102FF00095E0EEEAF2E0D70101900D929A95E1F7A3
:103000002596E6E00C942B31AAE0B0E0EAE0F8E186
:103010000C940F310E94A913811142C003E612E003
:103020009E012A5F3F4F4DEB52E064E083E00E9437
:103030007717882391F095E0FE013696DE01119610
:1030400001900D929A95E1F795E0FE013196ABE083
:10305000B3E001900D929A95E1F7E0901903F0909A
:103060001A03E114F104E1F02091BB023091BC029B
:103070002E153F05A9F0F0926902E092680210E077
:1030800000E030E020E042E050E068E672E085E0F9
:103090000E942F17882321F0F092BC02E092BB021D
:1030A0002A96E6E00C942B31A4E0B0E0EAE5F8E1E2
:1030B0000C9411314091B7025091B8026091B9025D
:1030C0007091BA022FB7F89480913E0390913F031C
:1030D000A0914003B09141032FBF841B950BA60B19
:1030E000B70B11E084369105A105B10538F10E94B6
:1030F000A913882341F10E94FC0D6E5F7F4F8F4F13
:103100009F4F69837A838B839C8310E000E030E0DB
:1031100020E044E050E0BE016F5F7F4F82E00E94FC
:103120002F17182F882351F00E94FC0D6093B702CF
:103130007093B8028093B9029093BA02812F2496BB
:10314000E4E00C942D310E94FC0D0091C10210911D
:10315000C2022091C3023091C402600F711F821F0E
:10316000931FCBCF1F920F920FB60F9211242F9364
:103170003F934F935F936F937F938F939F93AF93FF
:10318000BF93EF93FF938091E10082FF15C0809180
:10319000E20082FF11C08091E1008B7F8093E1000B
:1031A000209125032F5F822F62E30E943A319923F9
:1031B00009F4C0C0209325038091DA0080FF28C065
:1031C0008091D80080FF24C08091DA008E7F8093A8
:1031D000DA008091D90080FFE3C080E189BD82E1FF
:1031E00089BD09B400FEFDCF81E0809333038AECF2
:1031F00095E10E94DD0B80912603811109C00E9498
:103200007F0C0E94200D8091E20084608093E20098
:103210008091E10080FF1BC08091E20080FF17C019
:103220008091E2008E7F8093E2008091E2008061D5
:103230008093E2008091D80080628093D80019BC0E
:1032400085E08093330382ED95E10E94DD0B809150
:10325000E10084FF2FC08091E20084FF2BC080E159
:1032600089BD82E189BD89B5982F917080FFFBCF20
:103270008091D8008F7D8093D8008091E1008F7E6F
:103280008093E1008091E2008F7E8093E200809144
:10329000E20081608093E20080913403882309F486
:1032A00089C084E08093330386ED95E10E94DD0BB5
:1032B000809133038091E10083FF2BC08091E20075
:1032C00083FF27C08091E100877F8093E10082E047
:1032D00080933303109234038091E1008E7F8093BA
:1032E000E1008091E2008E7F8093E2008091E20015
:1032F00080618093E20042E060E080E00E94EE0C9A
:103300008091F00088608093F0008AED95E10E9442
:10331000DD0BFF91EF91BF91AF919F918F917F91C5
:103320006F915F914F913F912F910F900FBE0F9032
:103330001F9018951092250380912403882309F487
:103340003BCF809133038430C1F49091E9009F70AA
:103350002091EC00822F817020FD80E8892B94E081
:103360009093E9009091EB0090FF04C09091EE00E3
:1033700097FD08C08F708093E900109224031CCF42
:103380001092F1009091E80095FDFACF9091E8003D
:1033900090FFF0CF9091E8009E779093E800EACFFD
:1033A00019BC109233038EEC95E10E94DD0B109254
:1033B00026032ECF8091E30087FD93E090933303A3
:1033C00073CF78941F921FB61F9211248F939F93EF
:1033D000AF93BF9380913E0390913F03A091400330
:1033E000B09141030196A11DB11D80933E039093BE
:1033F0003F03A0934003B0934103BF91AF919F91CE
:103400008F911F901FBE1F9018952FB7F894809131
:103410003E0390913F03A0914003B09141032FBF21
:103420000895A9E1B0E0E7E1FAE10C940E310E94C1
:10343000A913882309F441C1409115035091160343
:1034400060911703709118032FB7F89480913E0391
:1034500090913F03A0914003B09141032FBF4817C3
:1034600059076A077B0709F428C10E94FC0D609385
:1034700015037093160380931703909318030E940B
:10348000A913882309F41DC1409110035091110321
:103490006091120370911303809114030E948A14A7
:1034A000209310033093110340931203509313039E
:1034B0006093140385E0E0E1F3E0DE0116960190ED
:1034C0000D928A95E1F7D0901103D194DF8285E0C7
:1034D000FE013696DE01509601900D928A95E1F735
:1034E00085E0FE017096DE01119601900D928A959D
:1034F000E1F785E0FE013196A0E1B3E001900D9285
:103500008A95E1F785E0E0E1F3E0DE015596019070
:103510000D928A95E1F70091110310911203E0904A
:103520001303F09014030E94A913882309F495C093
:103530008091460386FF44C020910203309103032B
:103540002D0D311DD7FC3A953093030320930203D0
:103550008091000390910103810F911D17FD9A95B1
:103560009093010380930003A90137FF04C044270F
:103570005527421B530B473051055CF0FF24FA944A
:103580001216130614F4FF24F394109203031092FE
:1035900002039C0197FF04C022273327281B390B05
:1035A000273031055CF0EE24EA941816190614F45D
:1035B000EE24E394109201031092000310E000E067
:1035C0000E8B1F8BE88EF98E85E0FE017596DE016D
:1035D0001B9601900D928A95E1F7802F002E000C2A
:1035E000990B97FF03C091958195910909975CF418
:1035F000812F012E000C990B97FF03C091958195A7
:10360000910909977CF08091040390910503892B1F
:1036100019F484E00E9400120E94051A9093050399
:103620008093040385E0FE013B96DE011196019034
:103630000D928A95E1F785E0FE013196DE0116963E
:1036400001900D928A95E1F785E0FE013696DE0144
:10365000559601900D928A95E1F70E8B1F8BE88E9F
:10366000F98E85E0FE017596DE01169601900D92A9
:103670008A95E1F785E0FE013696DE011B96019002
:103680000D928A95E1F785E0FE013B96A0E1B3E05B
:1036900001900D928A95E1F785E0E6E0F3E0DE0126
:1036A0001B9601900D928A95E1F7809110039B85FE
:1036B000892B809310030E94A9166996E7E00C9469
:1036C0002A3185E0EBE0F3E0A0E1B3E001900D9258
:1036D0008A95E1F7EFCE8091450383FF7EC08BEEA4
:1036E00094E00E94DD0B809106031F928F9386EE7B
:1036F00094E09F938F930E94760C84EE94E00E9456
:10370000DD0B80910703282F082E000C330B3F930D
:103710008F9381EE94E09F938F930E94760C8FEDB0
:1037200094E00E94DD0B80910803282F082E000CE6
:10373000330B3F938F938CED94E09F938F930E9474
:10374000760C8AED94E00E94DD0B80910903282F0E
:10375000082E000C330B3F938F9387ED94E09F93DB
:103760008F930E94760C85ED94E00E94DD0B809192
:103770000A03282F082E000C330B3F938F9382ED02
:1037800094E09F938F930E94760C8FEC94E00E94BC
:10379000DD0B8091F6021F928F938CEC94E09F9347
:1037A0008F930E94760C8AEC94E00E94DD0B80914E
:1037B000F5021F928F9387EC94E09F938F930E9462
:1037C000760C84EC94E00E94DD0B8DB79EB74C968E
:1037D0000FB6F8949EBF0FBE8DBF0E94051A9C01C4
:1037E0009091070380910803982B21F03093FA02FF
:1037F0002093F9029091090380910A03982B21F0FC
:103800003093F8022093F70286E093E00E946C0E5A
:10381000089510924702EEEDF1E086E0DF011D927F
:103820008A95E9F790E080E00E94470E90E080E002
:103830000E94220E109246020E94261685E0E6E0C3
:10384000F3E0DF011D928A95E9F71092F6021092DB
:10385000F4021092F5020E946B1B0895AAE2B0E0F8
:10386000E4E3FCE10C94123185E393E02091F10054
:10387000DC012D93CD01B3E08D339B07B9F7809127
:103880003603833009F472C0B8F4813009F449C0BA
:10389000823009F4B3C08091E80083FF8BC280912D
:1038A0003503909136039A3008F084C2E92FF0E096
:1038B000EC52FE4C0C946E318A3009F48EC08B3081
:1038C00009F471C0893039F780913503813219F7D5
:1038D0008091390390913A03009711F00297D9F63D
:1038E0008091E800877F8093E8008091E80082FF64
:1038F00038C09091F3008091F200029731F48091EA
:10390000F100813011F0863021F48091F100809334
:1039100028038091E8008B778093E8000E94CF0C09
:10392000BACF80913503813A09F0B5CF8091E80094
:10393000877F8093E8008091390390913A03892B27
:1039400061F468E089E293E070E00E947B0D809171
:10395000E8008B778093E8009ECF60E090E080E005
:10396000F3CF809133038111C0CF95CF8091350380
:10397000813A09F090CF8091390390913A03892BD5
:1039800009F089CF8091E800877F8093E8008091DB
:10399000E80080FFFCCF809161018093F10080916D
:1039A000E8008E77B9CF80913503813209F073CF6B
:1039B0008091390390913A03892B09F06CCF809163
:1039C000E800877F8093E8000E94CF0C8091370346
:1039D000809361010E94091C5ECF80913503813282
:1039E00009F059CF8091E800877F8093E8000E941A
:1039F000CF0C80913803809327034DCF80913503FE
:103A0000813A09F048CF8091E800877F8093E800F1
:103A10008091E80080FFFCCF80912703BECF8038E3
:103A200099F0823809F0C6C1809139038F708730D0
:103A300008F0C0C18093E9008091EB0085FB8827E6
:103A400080F91092E90006C0809131039091320311
:103A5000911182609091E800977F9093E8008093A5
:103A6000F1001092F1008091E8008E779FC18823C9
:103A700009F48DC1823009F09DC180913703811115
:103A800090C1809139038F702FEF280F263008F0F6
:103A900091C18093E9002091EB0020FF82C1933017
:103AA00031F48091EB0080628093EB007AC19091B9
:103AB000EB0090619093EB0021E030E001C0220F19
:103AC0008A95EAF72093EA001092EA008091EB00D1
:103AD0008860EACF81116EC1109137031F77809102
:103AE000E3008078812B8093E3008091E800877F5A
:103AF0008093E8000E94CF0C8091E80080FFFCCF0B
:103B00008091E30080688093E30082E0111183E0FC
:103B1000809333034FC18058823008F04BC120910D
:103B20003703309138032C3DE3E03E07A1F583E0F5
:103B30008A838AE289834FB7F894DE01139620E0E6
:103B40003EE051E2E32FF0E050935700E49120FF74
:103B500003C0E295EF703F5FEF708E2F90E0EA3088
:103B6000C0F0C7968D939D932F5F243159F74FBFB7
:103B70008091E800877F8093E8006AE270E0CE01E0
:103B800001960E947B0D8091E8008B778093E8007E
:103B900011C1C096E7CF8091390390913A03432F2A
:103BA00055274330510509F44AC078F54130510595
:103BB00009F47AC084E790E0EEEDF5E1423051057A
:103BC00009F0F8C02091E800277F2093E8002091B9
:103BD0003B0330913C038217930708F49C0140E0BB
:103BE0002115310509F065C0411163C08091E800DD
:103BF00082FDC9CF80913303882329F2853019F2E1
:103C00008091E80083FFF2CFBECF4132510509F425
:103C10003CC04232510509F0CDC08430910508F016
:103C2000C9C0FC01EE0FFF1FE653FE4F0190F0816B
:103C3000E02D8A539E4FDC018C9190E01AC033270F
:103C400021303105D1F02115310561F022303105E7
:103C500009F0B0C0E4E6F6E1E4918E2F90E0E4E6EE
:103C6000F6E107C0ECEBF6E1E4918E2F90E0ECEB8F
:103C7000F6E1009709F49EC0A5CFE6E9F6E1E491EC
:103C80008E2F90E0E6E9F6E1F4CF8430910508F05C
:103C900091C0880F991FFC01EE52FE4F0190F081F8
:103CA000E02D89E090E08ECF82E190E0E2E5F6E160
:103CB00089CF80913303882309F465CF853009F4D7
:103CC00062CF8091E80083FD5ECF8091E80082FDA5
:103CD0008DCF8091E80080FF83CF9091F300809199
:103CE000F2002115310519F08830910550F041E0BE
:103CF000089709F040E08091E8008E778093E80013
:103D00006FCF44914093F1003196215031090196D3
:103D1000E8CF803809F04EC08091E800877F80931B
:103D2000E800809134038093F1009DCE811142C060
:103D3000109137031230F0F58091E800877F80936F
:103D4000E800109334030E94CF0C112311F084E09B
:103D500005C08091E30087FDFACF81E080933303B3
:103D600042E061EC81E00E94EE0C42E061EC82E016
:103D70000E94EE0C42E261EC83E00E94EE0C42E213
:103D800061EC84E00E94EE0C8091330313C08091BB
:103D90003703813079F481E0933009F080E080933B
:103DA00032031092E9008091E800877F8093E80059
:103DB0000E94CF0C8091E80083FF0AC08091E80048
:103DC000877F8093E8008091EB0080628093EB0016
:103DD000AA96E3E00C942E311F920F920FB60F9229
:103DE00011242F933F934F935F936F937F938F9300
:103DF0009F93AF93BF93CF93DF93EF93FF93D091B4
:103E0000E900DF708091EC00C82FC17080FDC0E830
:103E10001092E9008091F000877F8093F000789401
:103E20000E942E1C1092E9008091F000886080931F
:103E3000F000CD2BCF70C093E900FF91EF91DF919F
:103E4000CF91BF91AF919F918F917F916F915F9132
:103E50004F913F912F910F900FBE0F901F9018958B
:103E60000E94091C2FEF84E39CE021508040904089
:103E7000E1F700C0000088E19AE00FB6F894A89539
:103E8000809360000FBE90936000FFCF662309F41B
:103E900072C08D3C41F40E94AF0E8195809308035F
:103EA0000E946B1B08958E3C19F40E94AF0EF6CF52
:103EB0008F3C31F40E94AF0E819580930703F0CFC1
:103EC000803D19F40E94AF0EF8CF893D29F40E947D
:103ED0008D0E80930903E4CF8A3D21F40E948D0E5C
:103EE0008195F7CF8B3D31F40E948D0E81958093A3
:103EF0000A03D6CF8C3D19F40E948D0EF8CF9FE2B5
:103F0000980F983020F5282F215D330BA90121E06F
:103F100030E001C0220F4A95EAF790910603922BF8
:103F200090930603815D21E030E0A90102C0440FB7
:103F3000551F8A95E2F7CA0120911003662309F400
:103F400093C0822B809310030E94A91608958D3D83
:103F500031F48091F50281608093F502A1CF8E3D0E
:103F600021F48091F5028260F7CF8F3D19F58091A1
:103F7000F5028460F1CF909107038D3C59F42091B4
:103F8000080327FF0DC01092080391110BC0109277
:103F9000F60208C08E3CB1F42091080312169CF37F
:103FA0009923B1F09091090320910A03922B11F407
:103FB0001092F402482F415D550B4830510508F42A
:103FC000B1CF6ECF8F3C39F497FFEACF1092070341
:103FD00090910803DACF803D19F41916BCF3E0CFB5
:103FE00020910903893D29F41216D4F61092090391
:103FF000D7CF8A3D19F427FFD3CFF8CF20910A03FA
:104000008B3D29F427FFCCCF10920A03C9CF8C3DFA
:1040100019F41216CCF3C4CF2FE2280F283088F4FD
:10402000282F215D330BA90121E030E001C0220FD0
:104030004A95EAF72095309106032323209306033F
:10404000AFCF2091F5022E7F8D3D59F02091F502E2
:104050002D7F8E3D31F08F3D09F0A2CF2091F502EA
:104060002B7F2093F5029CCF809582236BCF8823F2
:10407000D1F19CEF980F913A78F4EEEDF1E0919147
:10408000891303C0DF0111971C9291E0E43EF90708
:10409000B1F70E942616089590E2980F983050F4D8
:1040A000877091E001C0990F8A95EAF7892F0E94E5
:1040B0001211EFCF9BE5980F933028F490E080E049
:1040C0000E94470E089598E5980F993128F490E0E2
:1040D00080E00E94220E089593E3980F933118F424
:1040E00060E00E94461F0895CF93C82F8823B1F047
:1040F0008CEF8C0F813A00F5EEEDF1E084EE91E06B
:10410000DF012D91C21761F08A179B07D1F76C2F41
:104110008CED91E00E94080E0E942616CF91089522
:104120002191C21303C0DF0111971C928E179F07C4
:10413000B9F70E942616EBCF80E28C0F883068F426
:10414000C77021E030E001C0220FCA95EAF78091E4
:104150004702822B80934702DFCFEBE5EC0FE33081
:1041600040F4F0E0EC57FE4F808190E00E94470E53
:10417000D5CFE8E5EC0FE93150F4F0E0EE0FFF1F8A
:10418000E957FE4F808191810E94220EC7CF83E3C1
:104190008C0F833118F661E08C2F0E94461FBECF32
:1041A0000F931F93CF93DF93C62FD42F022FFC01C1
:1041B00082818823A9F0609344030E94051A90939A
:1041C000430380934203C77081E001C0880FCA9502
:1041D000EAF70E949F16DF91CF911F910F910895EA
:1041E00080914403681335C080914203909143034A
:1041F0000E94ED0D883C910560F510E21D0FCD1772
:10420000B9F080E28C0F883040F4C77081E001C0C3
:10421000880FCA95EAF70E949816183048F481E092
:104220009D2F977001C0880F9A95EAF70E949F16FC
:10423000802F0E947420802F0E943720183058F65B
:10424000D77081E001C0880FDA95EAF70E949816CE
:10425000C2CFC77081E001C0880FCA95EAF7F6CFD8
:10426000A5E0B0E0E6E3F1E20C9409317C01DC0169
:1042700013968D919C911497892B39F08C911196FE
:104280009C9189238F3F09F00AC42596ECE00C9499
:1042900025310E942311182F682F89819A810E944D
:1042A000971169817A81812F0E94600F8C016C01C6
:1042B000BEE7DB1AE8E0CE16D10480F4F601E25244
:1042C000FE4CD70112968C910C946E31882331F0FC
:1042D0000E94571291E089270E94F416B8E0CB168D
:1042E000D10428F0C8018D5C9109439710F40E9415
:1042F0006412F801E851FC47E730F10508F06AC0A4
:10430000EA51FE4C0C946E31882341F30E945712FF
:10431000E3CF882319F30E94571291E089270E9466
:104320001017DCCF8823D1F20E945712F8CF90915A
:10433000460380FB97F9909346030E94F113CECF7A
:10434000882361F290914603892F97FB87F9805863
:1043500080934603F2CF9091460380FB96F9EBCF12
:10436000882309F4BBCF90914603892F8F7B96FF5A
:104370008064EECF26E241EE61EEC7010E94D020BC
:1043800080913D02877009F480CFD70112968C91FD
:10439000882309F47ACF8091D60282FF76CF82E01B
:1043A0000E94E41172CF27E245EE65EEE6CF26E2E9
:1043B00041EE60EEE2CF27E245EE64EEDECF26E28C
:1043C00041EE62EEDACF27E245EE66EED6CF28E286
:1043D00041E0EBCFF7018281882309F489C3109271
:1043E0004403C8019057839708F06CC384E090E0C1
:1043F0000E9482319093D6028093D502F801E15059
:10440000F047E232F10520F4E351FE4C0C946E319A
:104410008091D50281608093D50295C08091D602AB
:1044200088608093D6028FC08091D5028260F3CFDE
:104430008091D5028460EFCF8091D5028860EBCF68
:104440008091D6028160EDCF8091D6028260E9CF63
:104450008091D5028061DFCF8091D5028062DBCF71
:104460008091D5028064D7CF0E94091C8091D5022B
:104470008068D1CF8091D5028C60CDCF8091D6025B
:104480008360CFCF8091D5028E7FC5CF8091D60239
:10449000877FC7CF8091D5028D7FBDCF8091D50218
:1044A0008B7FB9CF8091D502877FB5CF8091D6021F
:1044B0008E7FB7CF8091D6028D7FB3CF8091D5020A
:1044C0008F7EA9CF8091D5028F7DA5CF8091D50217
:1044D0008F7BA1CF0E94091C8091D5028F779BCF43
:1044E0008091D502837F97CF8091D6028C7F99CF20
:1044F0008091D50282FB992790F921E0922790FBC9
:1045000082F990FB83F987CF8091D602982F9095FE
:1045100091708E7F892B90FB81F983CF9091D5028A
:10452000892F8F7B96FF806476CF0E94091C909123
:10453000D502892F97FB87F980586DCF61E08EE017
:1045400090E00E9488316091D5027091D60284E09B
:1045500090E00E94A6310E94091C12CF60E0EFCFCC
:104560009091D502892F8F7E94FF806154CF9091D6
:10457000D502892F8E7F90FF81604DCF9091D6021A
:10458000892F877F93FF88604CCF85E3BBC29091D2
:104590004503892F8E7F90FF81608093450380FFC4
:1045A00005C089E991E00E94DD0BEACE87E891E041
:1045B000FACF6FEF7FEF90E080E00E94A6310E947B
:1045C000301F8091D60282FB882780F991E08927ED
:1045D0000E94CA16F701828100811181882309F4A3
:1045E00046C0C8010E942311D82E682FC8010E941E
:1045F0009711B8018D2D0E94600F0E947D0F8C01D4
:10460000882ED7011296AC90129715969C90929492
:104610003FE0932280913D028770C1F0CA2CAA200E
:10462000B1F0812F807F803421F080E2800F8830CC
:1046300068F08091D60282FF09C082E00E94E411F6
:1046400080913D028770CC24C3948111C12CB12E7E
:10465000B2942FE0B222BBE0BB1508F474C0EB2D7E
:10466000F0E0E15FFD4C0C946E3180E0B1CFC80109
:104670000E946411D82EBDCFE12FEF70DE2E107F87
:1046800019F0D29490EFD922AA20B9F0DD2069F078
:1046900080E2800F883010F0811009C080914702BD
:1046A000D82AD09247020E942616802F4AC08091B5
:1046B0004602D82AD0924602F6CF802F0E94372099
:1046C000DD2009F440C0005E083010F0811004C005
:1046D0008D2D0E94121106C0D09480914602D822DE
:1046E000D09246020E9426162EC0F12FFF70DF2EB8
:1046F000107F103219F0D29480EFD822882089F0F0
:1047000021E0821609F47CC0AA2009F486C0992011
:1047100009F47CC0F701858180FFC7CF8F70858346
:1047200075C02091D60222FD43C0AA20D9F1DD2018
:1047300039F080914702D82AD09247020E9426166B
:1047400080E00E947420AB2DA850BB0B149710F48E
:104750000E94CE13CC20A9F080913D0280FD11C0B3
:10476000F70112828595859585950E940012C701F3
:104770000E94302180913D028595859585950E9406
:10478000D21185E0F701DE01119601900D928A9514
:10479000E1F709811A81C8010E946411B8010E94E1
:1047A000600F73CD80E00E943720DD2061F290CF52
:1047B000AA20A1F090914802892F8D29911003C061
:1047C0000E949F16C0CF31E09312FACF22FFBBCFD9
:1047D000981709F4B8CF80934802B5CF911006C05E
:1047E0000E940C118D2D0E949816ADCF81E0981675
:1047F00009F4A9CF8D2D0E9498160E940C11A3CF09
:10480000AA2031F095E0991508F49DCF8D2DD8CFD1
:10481000A4E0A91508F497CFE5CF992019F3F9E39F
:104820008F1209C02FEF37EE83E0215030408040D7
:10483000E1F700C00000802F0E94372084CF812F35
:1048400086958695837061F0813009F07CCFC80130
:104850009370A11002C080E090E00E94220E73CFFE
:10486000C8019370A11002C080E090E00E94470E42
:104870006ACF6A2D802F0E94461F65CF812F8370DB
:1048800009F03FC0A1105FCF402F42954695477079
:10489000440F440F802F8F7090E0042E02C0880FC9
:1048A000991F0A94E2F730E020E004FF09C02FE0EE
:1048B00030E002C0220F331F4A95E2F72095309571
:1048C000169516951370123099F078F44091D10234
:1048D0005091D202113039F0822B932B84239523EF
:1048E0000E94101230CF842B952B822B932BF8CF64
:1048F000822B932B2091D1023091D20282279327D1
:10490000EFCF8695AA2011F0812F8170882309F4BA
:104910001ACF402F429546954770440F440F802F81
:104920008F7090E0042E02C0880F991F0A94E2F75E
:1049300030E020E004FF09C02FE030E002C0220F89
:10494000331F4A95E2F7209530951695169513700A
:10495000123099F078F44091D3025091D402113082
:1049600039F0822B932B842395230E94CD11EBCE1B
:10497000842B952B822B932BF8CF822B932B20917A
:10498000D3023091D40282279327EFCF1F70AA2041
:1049900029F0812F0E940012802F12CF802F0E94B9
:1049A0009816812F0E94D211CECE802F92EF8916B9
:1049B00099F1981570F0A0EF8A16D1F0B1EF8B162F
:1049C00091F0AA2009F45BC091106FCE812F8F71F6
:1049D00027C0E3EF8E1639F1F4EF8F12F2CF8091FA
:1049E000D60282FD2EC0812F8F71AA20D9F218C065
:1049F000AA2069F024E0291508F4A5CE1F7181E0F2
:104A000090E002C0880F991F1A95E2F7B8CF35E001
:104A1000391508F498CEF2CF812F8F71A110C2CF33
:104A20000E94001290CE90E080E0AA2009F49DCF71
:104A30001F7181E090E002C0880F991F1A95E2F77C
:104A400094CFAA2089F01F71812F0E9400128091BB
:104A5000D60282FF07C0A8E01A9FC001112483601C
:104A600080933D02812FDCCF81E00E94E411B1E010
:104A7000B91508F068CE82E00E94E41164CE992056
:104A800059F0893309F0D7CEEFEFF7EE23E0E1508C
:104A9000F0402040E1F7CDCE812F8F7183CF85E0AC
:104AA000F701DE01119601900D928A95E1F7D70189
:104AB00012962C9189819A812111EBCB0E9464116D
:104AC000182FEFCB0631BCE71B0751F58091470249
:104AD0008A7A91E009F490E09093E40169E281110F
:104AE00065E38CED91E00E94080E0E94261648CCEA
:104AF0000631ECE71E0709F06DCD8091E4018111CC
:104B000044CD89E2EEEDF1E024EE31E0919189139C
:104B100003C0DF0111971C922E173F07B9F7E5CFAD
:104B20000330FCE71F0709F444CDC0F401303CE733
:104B3000130709F444CD08F02ACD01151C4709F0EC
:104B400049CD0E94091CFFEF24E33CE0F1502040D6
:104B50003040E1F700C000000E94DC0D0B35ACE7EF
:104B60001A0709F482CD0C35BCE71B0709F429CDDF
:104B70000A351C4709F02ECD81E02ACD1F93CF9333
:104B8000DF9380910A02807F09F049C0809107027B
:104B9000882309F444C080913C02D0910B026091BB
:104BA000050270910602A0910802B0910902C62F79
:104BB000C72316E0D81799F190E0109711F0CF3F76
:104BC00019F401968770F6CF189F9001199F300D48
:104BD0001124F901E45FFD4F41814713F2CF408179
:104BE0004613EFCF42814111ECCF438154814A1BE0
:104BF0005B0B483C510528F780910A028F70806159
:104C000080930A02F901EF5EFD4F80818F70806111
:104C1000808385E092E00E9430210E941911DF918B
:104C2000CF911F910895A1E1B0E0E9E1F6E20C9483
:104C30000B318C0185E0F801DE011D9601900D928B
:104C40008A95E1F7F801E28085E0A82E82E0B82E8F
:104C500060910802709109026115710509F426C17D
:104C60009091050240910602892F84238F3F09F419
:104C70001DC120813181C380D480F0900702F601EC
:104C8000E61BF70BFF2009F4DCC080910A02582FC5
:104C9000507FE83CF10508F09FC051116BC0FE2C1D
:104CA000431314C0921312C0E11010C08F708061C2
:104CB00080930A02C5010E94302180910A02F80106
:104CC00085838F2D6196EAE00C942731C114D104BD
:104CD00029F0822F83238F3F09F003C180E0F82F52
:104CE000F170DF2E80FF3CC080913C0240910B02AE
:104CF00056E0841315C02D873E878D859E850E94C2
:104D00005711292F22952F702230F0F0243018F5FA
:104D10009F70F1F0F8019581907FD1F4D12C1EC0E5
:104D200090E0589FF001599FF00D1124E45FFD4F72
:104D30006181361306C06081261303C06281E612CA
:104D40000FC001968770D5CF9F7011F0882331F383
:104D5000805E883018F3C8010E943021FD2CB1CF4D
:104D6000EE2009F4AECF80910A02816080930A029E
:104D7000F12CA7CF431306C0921304C0F801EE2014
:104D800009F479C0C8010E941512882309F1EE20A8
:104D9000F9F080910A02803270F020910502309182
:104DA000060238872F831986DB86CA868C87CE0158
:104DB00007960E94302186E0F801A5E0B2E001905C
:104DC0000D928A95E1F70E94BE25FF24F39479CFD6
:104DD000C8010E943021F9CF51110AC085E092E04C
:104DE0000E94302186E0F50111928A95E9F7C0CF43
:104DF00043130FC092130DC0E1100BC0F80185835F
:104E0000C8010E94302186E0F50111928A95E9F7E8
:104E100058CFC8010E9415128823D1F2EE20C1F2AA
:104E200080910A02803238F2209105023091060208
:104E30003A8329831B82DD82CC828E83CE01019648
:104E4000B8CFE83CF105F8F6FE2CEE2009F243134A
:104E50001FC092131DC080910A0280FD10C0982FC0
:104E6000907F69F0F8018583903F31F0982F907F13
:104E7000905F8F70892B8583C8010E94302186E066
:104E8000F801A5E0B2E001900D928A95E1F719CF03
:104E9000C8010E94151281118ECF80910A02816093
:104EA00080930A02C8010E9430210BCFEE2009F442
:104EB0008FCFC8010E941512F82E882309F488CFDD
:104EC00086E0F801A5E0B2E001900D928A95E1F745
:104ED00080910502909106020E9457110E94BE2502
:104EE000F0CE81E08E25FBCEA7E1B0E0EAE7F7E265
:104EF0000C9412314B8B5C8B6D8B7E8B8F8B611185
:104F0000109246021A8A198A85E0FE017396DE0124
:104F10001D9601900D928A95E1F786E0FE013D967F
:104F2000DE01179601900D928A95E1F7CE01079662
:104F30000E941326882359F016E080913C0290913C
:104F40000B02891343C06796E3E00C942E3186E090
:104F5000FE013796DE01119601900D928A95E1F7D8
:104F60008A859B85892B41F38F81988589238F3F83
:104F700019F320910B0230E0C9010196877099273F
:104F800040913C024817190671F40E94091C1092C6
:104F90000B0210923C0286E0E5E0F2E0DF011D9298
:104FA0008A95E9F7C9CF96E0929FD001939FB00D03
:104FB0001124A45FBD4FFE01319601900D929A9588
:104FC000E1F780930B020E941911B6CF819FC001B7
:104FD0001124845F9D4F0E941326882309F4B3CFC8
:104FE00080913C0290E001968770992780933C0263
:104FF000A4CFA7E1B0E0EFEFF7E20C9408318E0107
:105000000F5F1F4F8AE0D8011D928A95E9F78BEB5D
:10501000C82E81E0D82EF12CE12CAA24A394B12C27
:1050200026EC822E21E0922EF60181916F018F3FB6
:1050300009F442C0F894E82FE295EF70F0E021A166
:105040008F70A50102C0440F551F8A95E2F7CA016F
:10505000922F982B91A392A18095892382A3789473
:1050600000C0E0ECF1E0712C31E021912F3F09F418
:105070006BC0A22FA295AF70B0E090968C9190E09B
:105080002F7002C0959587952A95E2F780FD5CC048
:10509000832F782A330F8E169F0639F7F601319742
:1050A00080818F3F11F00E94060F50EA5A95F1F768
:1050B000F801EE0DFF1D70828FEFE81AF80AA5E0E7
:1050C000EA16F10409F0B0CF4AE050E0B80185ECEF
:1050D00092E00E94BC31009741F02AE0F801A5EC73
:1050E000B2E001900D922A95E1F70091D002892B50
:1050F00069F181E080934B020E94051A90934A0265
:10510000809349028091490290914A020E94ED0DDC
:10511000059700F110E007521D4F45E050E065ECA7
:1051200072E0C8010E94BC31C12C892B51F085E08E
:10513000E5ECF2E0D80101900D928A95E1F7CC24DC
:10514000C39410924B0207C080E0A3CF80914B0222
:105150008111D8CFC12C0E94A913D82EE091D00282
:10516000882309F4A9C07E01BBE0EB0EF11C85E0A9
:10517000D7011D928A95E9F70E2F10E007521D4FB7
:10518000B090EE02B9E0BB1508F452C02BED37E148
:1051900043E651E0B701C8010E946213882309F475
:1051A00069C024E538E140E751E0B701C8010E9439
:1051B0006213882309F45EC024E038E14BE751E034
:1051C000B701C8010E946213882309F453C0F9E0B3
:1051D000FB1508F468C01092EE028091CF0290E0B7
:1051E00045E050E0B70187529D4F0E94BC3121E05D
:1051F00020935602892B89F5D12C0091040310913C
:1052000005030115110571F00E94051A801B910B11
:10521000883E934038F0109205031092040384E016
:105220000E94D2118D2D8C296796EDE00C942431CB
:1052300080914C0290914D020E94ED0D843F91406F
:1052400008F0A4CF809156028823B1F285E0D701FF
:105250001D928A95E9F710925602A091CF02B0E014
:10526000A752BD4F85E0FE013B9601900D928A95B5
:10527000E1F7C3CF8091EE028F3F31F08F5F8093D3
:10528000EE028A3008F4A9CF0E94051A90934D02CD
:1052900080934C028091450380FFD4CF84E494E056
:1052A0000E94DD0BCFCF8091450380FF94CF81E337
:1052B00094E00E94DD0B8FCFF0E0E752FD4F85E0D8
:1052C000A9E5B2E001900D928A95E1F765E070E002
:1052D00089E592E00E94770E8093580280905E02EA
:1052E00090905F02A0906002B090610280915202A3
:1052F00090915302A0915402B091550288169906DC
:10530000AA06BB06D1F08092520290925302A0925C
:105310005402B09255020E94A91381110EC00E943E
:10532000FC0D861A970AA80AB90A8092C1029092C7
:10533000C202A092C302B092C4020E94A9138823A1
:1053400009F470CF40914E0250914F02609150028B
:10535000709151022FB7F89480913E0390913F03D2
:10536000A0914003B09141032FBF481759076A0726
:105370007B0709F457CF0E94FC0D60934E02709397
:105380004F0280935002909351020E9481149C011D
:1053900098E0E2E6F2E0DE011B9601900D929A950C
:1053A000E1F789899A89009729F02817390711F0C0
:1053B0000E945114FE01739685E0DF011D928A95CB
:1053C000E9F74B895C896D897E898F890E948A14EF
:1053D0002C873D874E875F87688B65E070E0CE0144
:1053E0000C960E94770E8B8788E0FE013B96A2E622
:1053F000B2E001900D928A95E1F714CF1F921FB68B
:105400001F9211248F939F93AF93BF938091220398
:10541000811113C080913E0390913F03A0914003FE
:10542000B09141034196A11DB11D80933E0390931D
:105430003F03A0934003B0934103BF91AF919F916D
:105440008F911F901FBE1F901895CDB7DEB7619743
:105450000FB6F894DEBF0FBECDBF85B7806885BF9D
:1054600085B7806885BF84B7877F84BF0FB6F894FF
:10547000A895809160008861809360001092600020
:105480000FBE80E890E00FB6F8948093610090938F
:1054900061000FBE83EA92E19093DB018093DA0111
:1054A0000E947F0C0E94200D8091E2008460809316
:1054B000E2007894809133038823A1F01091E900F1
:1054C0001F709091EC00892F817090FD80E8182B5F
:1054D0001092E9008091E80083FD0E942E1C1F704D
:1054E0001093E90082E084BD93E095BD9AEF97BDEB
:1054F00080936E001092C1021092C2021092C302F9
:105500001092C4020E94A91391E0892780930001A0
:105510000E94A91381110E94A12F80910001809106
:10552000000195E0811190E09093D00285E0891B05
:105530008093CF020BEB11E0F0ECEF2EF1E0FF2EA9
:10554000D8018D918D018F3F11F00E94060FE0165A
:10555000F106B1F700EC11E0E6ECEE2EE1E0FE2EF4
:10556000F80181918F018F3F11F00E94060FE01624
:10557000F106B1F78AE0E9EDF2E0DF01282F1D9294
:105580002A95E9F7E5ECF2E0DF011D928A95E9F74B
:105590008FE090E00E947C316F736093460390E04F
:1055A00080E00E948231873E9E4F09F462C067EE20
:1055B0007EEF90E080E00E94A63160E082E090E023
:1055C0000E94883160E083E090E00E948831109270
:1055D000D2021092D10260E074E184E090E00E9477
:1055E000A63160E086E090E00E9488316FEF87E0AE
:1055F00090E00E94883140E050E0BA0188E090E0FD
:105600000E949A3160E08DE090E00E94883140E095
:1056100050E0BA0188E190E00E949A3160E087E1B1
:1056200090E00E94883140E050E0BA018CE190E0C7
:105630000E949A3170E060E080E290E00E94A63122
:1056400040E050E0BA0188E190E00E949A31109267
:10565000460340E050E0BA018FE090E00E949A31AA
:105660000E94F11340E050E0BA0183E190E00E9413
:105670009A3182E090E00E9474318093450384E087
:1056800090E00E9482319093D6028093D5020E94CE
:10569000F927EFE3FCE93197F1F700C000000E9421
:1056A000F9278091DE0280FF08C06FEF7FEF90E066
:1056B00080E00E94A6310E94DC0D83E090E00E9411
:1056C000743190E00E9410120E94A913811102C04F
:1056D0000E94A42F0E94A91381110E9462150E94AA
:1056E000F11383ED9EE09093600180935F0186E16A
:1056F00090E090935B0180935A0186E390E0909351
:105700005E0180935D0181E091E090931F0380939F
:105710001E0378E1272E312C89ED92E0FAE0F80F94
:10572000F98B6DEE462E62E0562E80913303853064
:1057300089F480E994E00E94DD0B50E4F52E00E14D
:1057400012E180913303853009F488C00E94091C5E
:105750000E94CE130E94F92733EEE32E32E0F32E9F
:1057600049ED642E42E0742ED301F70191918D91A1
:105770004E165F0609F4A9C09817C1F3809145033E
:1057800081FF35C083EA94E00E94DD0B89EDA82EED
:1057900082E0B82E10E000E09EE9892E94E0992E78
:1057A00026E9C22E24E0D22E1F930F939F928F9250
:1057B0000E94760C8BE994E00E94DD0BD5018D915F
:1057C0005D010E943F121F928F93DF92CF920E9441
:1057D000760C84E994E00E94DD0B0F5F1F4F0FB63B
:1057E000F894DEBF0FBECDBF0A301105E9F60E9466
:1057F000A913A82E10E0D3010D913D01F701B1903E
:105800007F01B01629F1B026D12CCC24C3948C2D65
:105810008B21B1F0AA20A1F0DB861C8791E08C2DB2
:10582000802309F490E09D870E94051A8160782FFB
:105830009F878E874B855C856D858F850E94742739
:10584000D394CC0CF6E0DF12E2CFF701319700835E
:105850001F5F1A3081F60E94FC0D57C08091330300
:10586000843019F10E94111A109222030FB6F89495
:10587000A895209260000FBEF092600083B7817FF0
:10588000846083BF83B7816083BF7894889583B732
:105890008E7F83BF0FB6F894A895809160008861D1
:1058A00080936000109260000FBE809132038823C5
:1058B00009F447CF0E94F927E9EDF2E081918111C7
:1058C000BCC129892E13FACF3CCF981357CF0E9421
:1058D000051A8C018091D7029091D80208171907F8
:1058E000A1F08FEF8E838F8318860E94051A816046
:1058F000782F9A8789874E815F8168858A850E9483
:1059000074271093D8020093D7020E94A91385E050
:10591000E6E0F3E0DE01119601900D928A95E1F741
:1059200010920703109208031092090310920A03C1
:105930008A819B81892B09F44AC08091F902909158
:10594000FA020E94ED0D9C019091F602992309F450
:105950008FC123333105D8F19F3F19F09F5F90939A
:10596000F6021A81112359F00E94AF0E9FEF111613
:105970000CF491E0899F802D1124809307031B81F3
:10598000112359F00E94AF0E9FEF11160CF491E015
:10599000899F802D112480930803309107033323BE
:1059A000B1F020910803222391F045EB3403C001AC
:1059B0001124992309F42FC19093070345EB240385
:1059C00090011124332309F42AC1309308038C81F8
:1059D0009D81892B09F44AC08091F7029091F802C9
:1059E0000E94ED0D9C019091F402992309F43BC1B2
:1059F00023333105D8F19F3F19F09F5F9093F40254
:105A00001C81112359F00E948D0E9FEF11160CF48A
:105A100091E0899F802D1124809309031D8111231A
:105A200059F00E948D0E9FEF11160CF491E0899FA2
:105A3000802D112480930A03309109033323B1F0A0
:105A400020910A03222391F045EB3403C001112475
:105A5000992309F4E8C09093090345EB24039001CE
:105A60001124332309F4E3C030930A0345E050E0E6
:105A7000BE016F5F7F4F86E093E00E94BC31892BAF
:105A800061F48091070390910803892B9091090399
:105A9000892B90910A03892B11F00E946B1B85E0E2
:105AA000FE013196A6E0B3E001900D928A95E1F7F0
:105AB0000E94111A0E94CE13182F8091ED02181720
:105AC00031F11093ED020E94FC0D8091450382FF9D
:105AD0001EC080FF1CC089EB94E00E94DD0B80910A
